{
  "contractName": "Lottery",
  "abi": [
    {
      "inputs": [],
      "stateMutability": "nonpayable",
      "type": "constructor"
    },
    {
      "inputs": [],
      "name": "montantTotal",
      "outputs": [
        {
          "internalType": "uint256",
          "name": "",
          "type": "uint256"
        }
      ],
      "stateMutability": "view",
      "type": "function",
      "constant": true
    },
    {
      "inputs": [
        {
          "internalType": "uint256",
          "name": "",
          "type": "uint256"
        }
      ],
      "name": "tickets",
      "outputs": [
        {
          "internalType": "address",
          "name": "buyer",
          "type": "address"
        },
        {
          "internalType": "uint256",
          "name": "value",
          "type": "uint256"
        }
      ],
      "stateMutability": "view",
      "type": "function",
      "constant": true
    },
    {
      "inputs": [
        {
          "internalType": "uint256",
          "name": "montant",
          "type": "uint256"
        }
      ],
      "name": "buyTicket",
      "outputs": [],
      "stateMutability": "payable",
      "type": "function",
      "payable": true
    },
    {
      "inputs": [
        {
          "internalType": "uint256",
          "name": "montant",
          "type": "uint256"
        }
      ],
      "name": "winTicket",
      "outputs": [],
      "stateMutability": "payable",
      "type": "function",
      "payable": true
    }
  ],
  "bytecode": "0x608060405234801561001057600080fd5b50336000806101000a81548173ffffffffffffffffffffffffffffffffffffffff021916908373ffffffffffffffffffffffffffffffffffffffff160217905550600060018190555061074c806100686000396000f3fe60806040526004361061003f5760003560e01c806316606cbe1461004457806350b447121461006f57806367dd74ca146100ad5780638f69ba1c146100c9575b600080fd5b34801561005057600080fd5b506100596100e5565b60405161006691906104f1565b60405180910390f35b34801561007b57600080fd5b50610096600480360381019061009191906103b8565b6100eb565b6040516100a4929190610468565b60405180910390f35b6100c760048036038101906100c291906103b8565b61013f565b005b6100e360048036038101906100de91906103b8565b61024d565b005b60015481565b600281815481106100fb57600080fd5b90600052602060002090600202016000915090508060000160009054906101000a900473ffffffffffffffffffffffffffffffffffffffff16908060010154905082565b60008111610182576040517f08c379a0000000000000000000000000000000000000000000000000000000008152600401610179906104d1565b60405180910390fd5b600060405180604001604052803373ffffffffffffffffffffffffffffffffffffffff168152602001838152509050600281908060018154018082558091505060019003906000526020600020906002020160009091909190915060008201518160000160006101000a81548173ffffffffffffffffffffffffffffffffffffffff021916908373ffffffffffffffffffffffffffffffffffffffff1602179055506020820151816001015550508160016000828254610242919061051d565b925050819055505050565b60008054906101000a900473ffffffffffffffffffffffffffffffffffffffff1673ffffffffffffffffffffffffffffffffffffffff163373ffffffffffffffffffffffffffffffffffffffff16146102db576040517f08c379a00000000000000000000000000000000000000000000000000000000081526004016102d2906104b1565b60405180910390fd5b600154811115610320576040517f08c379a000000000000000000000000000000000000000000000000000000000815260040161031790610491565b60405180910390fd5b80600160008282546103329190610573565b9250508190555060008054906101000a900473ffffffffffffffffffffffffffffffffffffffff1673ffffffffffffffffffffffffffffffffffffffff166108fc829081150290604051600060405180830381858888f1935050505015801561039f573d6000803e3d6000fd5b5050565b6000813590506103b2816106ff565b92915050565b6000602082840312156103ca57600080fd5b60006103d8848285016103a3565b91505092915050565b6103ea816105a7565b82525050565b60006103fd60408361050c565b915061040882610612565b604082019050919050565b6000610420602b8361050c565b915061042b82610661565b604082019050919050565b6000610443602c8361050c565b915061044e826106b0565b604082019050919050565b610462816105d9565b82525050565b600060408201905061047d60008301856103e1565b61048a6020830184610459565b9392505050565b600060208201905081810360008301526104aa816103f0565b9050919050565b600060208201905081810360008301526104ca81610413565b9050919050565b600060208201905081810360008301526104ea81610436565b9050919050565b60006020820190506105066000830184610459565b92915050565b600082825260208201905092915050565b6000610528826105d9565b9150610533836105d9565b9250827fffffffffffffffffffffffffffffffffffffffffffffffffffffffffffffffff03821115610568576105676105e3565b5b828201905092915050565b600061057e826105d9565b9150610589836105d9565b92508282101561059c5761059b6105e3565b5b828203905092915050565b60006105b2826105b9565b9050919050565b600073ffffffffffffffffffffffffffffffffffffffff82169050919050565b6000819050919050565b7f4e487b7100000000000000000000000000000000000000000000000000000000600052601160045260246000fd5b7f4c65206d6f6e74616e742064656d616e6465206573742073757065726965757260008201527f206175206d6f6e74616e7420746f74616c206465206c61206361676e6f747465602082015250565b7f5365756c206c652070726f70726965746169726520706575742072657469726560008201527f722064657320666f6e6473000000000000000000000000000000000000000000602082015250565b7f4c65206d6f6e74616e7420616a6f75746520646f69742065747265207375706560008201527f72696575722061207a65726f0000000000000000000000000000000000000000602082015250565b610708816105d9565b811461071357600080fd5b5056fea2646970667358221220da028a3501961e2534d567ec6272010c87a07911428bfb1e15d324efe956de2864736f6c63430008030033",
  "immutableReferences": {},
  "source": "pragma solidity ^0.8.3;\n\ncontract Lottery {\n\n    struct Ticket {\n        address buyer;\n        uint value;\n    }\n\n    address payable owner;\n    uint public montantTotal;\n    Ticket[] public tickets;\n\n    constructor() {\n        owner = payable(msg.sender);\n        montantTotal = 0;\n    }\n\n    function buyTicket(uint montant) public payable {\n        require(montant > 0, \"Le montant ajoute doit etre superieur a zero\");\n\n        Ticket memory newTicket = Ticket({\n            buyer: msg.sender,\n            value: montant\n        });\n\n        tickets.push(newTicket);\n\n        montantTotal += montant;\n    }\n\n    function winTicket(uint montant) public payable {\n        require(msg.sender == owner, \"Seul le proprietaire peut retirer des fonds\");\n        require(montant <= montantTotal, \"Le montant demande est superieur au montant total de la cagnotte\");\n\n        montantTotal -= montant;\n        //a marche pas\n        owner.transfer(montant);\n    }\n}",
  "sourcePath": "C:\\Users\\filli\\OneDrive\\Bureau\\SolidityPot\\contracts\\Lottery.sol",
  "compiler": {
    "name": "solc",
    "version": "0.8.3+commit.8d00100c.Emscripten.clang"
  },
  "schemaVersion": "3.4.13",
  "updatedAt": "2023-03-10T07:51:12.814Z",
  "networkType": "ethereum",
  "devdoc": {
    "kind": "dev",
    "methods": {},
    "version": 1
  },
  "userdoc": {
    "kind": "user",
    "methods": {},
    "version": 1
  }
}