{
  "contractName": "Lottery",
  "abi": [
    {
      "inputs": [],
      "stateMutability": "nonpayable",
      "type": "constructor"
    },
    {
      "anonymous": false,
      "inputs": [
        {
          "indexed": false,
          "internalType": "address",
          "name": "player",
          "type": "address"
        }
      ],
      "name": "NewPlayer",
      "type": "event"
    },
    {
      "anonymous": false,
      "inputs": [
        {
          "indexed": false,
          "internalType": "address",
          "name": "winner",
          "type": "address"
        },
        {
          "indexed": false,
          "internalType": "uint256",
          "name": "amount",
          "type": "uint256"
        }
      ],
      "name": "Winner",
      "type": "event"
    },
    {
      "inputs": [
        {
          "internalType": "address",
          "name": "",
          "type": "address"
        }
      ],
      "name": "investments",
      "outputs": [
        {
          "internalType": "uint256",
          "name": "",
          "type": "uint256"
        }
      ],
      "stateMutability": "view",
      "type": "function"
    },
    {
      "inputs": [],
      "name": "manager",
      "outputs": [
        {
          "internalType": "address",
          "name": "",
          "type": "address"
        }
      ],
      "stateMutability": "view",
      "type": "function"
    },
    {
      "inputs": [
        {
          "internalType": "uint256",
          "name": "",
          "type": "uint256"
        }
      ],
      "name": "players",
      "outputs": [
        {
          "internalType": "address payable",
          "name": "",
          "type": "address"
        }
      ],
      "stateMutability": "view",
      "type": "function"
    },
    {
      "inputs": [],
      "name": "totalAmount",
      "outputs": [
        {
          "internalType": "uint256",
          "name": "",
          "type": "uint256"
        }
      ],
      "stateMutability": "view",
      "type": "function"
    },
    {
      "inputs": [],
      "name": "enter",
      "outputs": [],
      "stateMutability": "payable",
      "type": "function"
    },
    {
      "inputs": [],
      "name": "pickWinner",
      "outputs": [],
      "stateMutability": "nonpayable",
      "type": "function"
    },
    {
      "inputs": [],
      "name": "getPlayers",
      "outputs": [
        {
          "internalType": "address payable[]",
          "name": "",
          "type": "address[]"
        }
      ],
      "stateMutability": "view",
      "type": "function"
    },
    {
      "inputs": [],
      "name": "getTotalAmount",
      "outputs": [
        {
          "internalType": "uint256",
          "name": "",
          "type": "uint256"
        }
      ],
      "stateMutability": "view",
      "type": "function"
    }
  ],
  "bytecode": "0x6080604052600060035534801561001557600080fd5b50336000806101000a81548173ffffffffffffffffffffffffffffffffffffffff021916908373ffffffffffffffffffffffffffffffffffffffff160217905550610e89806100656000396000f3fe60806040526004361061007b5760003560e01c80638b5b9ccc1161004e5780638b5b9ccc1461011857806396b9886214610143578063e97dcb6214610180578063f71d96cb1461018a5761007b565b80631a39d8ef14610080578063481c6a75146100ab5780635d495aea146100d657806365ac4341146100ed575b600080fd5b34801561008c57600080fd5b506100956101c7565b6040516100a29190610bbb565b60405180910390f35b3480156100b757600080fd5b506100c06101cd565b6040516100cd9190610b3a565b60405180910390f35b3480156100e257600080fd5b506100eb6101f1565b005b3480156100f957600080fd5b5061010261036c565b60405161010f9190610bbb565b60405180910390f35b34801561012457600080fd5b5061012d610376565b60405161013a9190610b99565b60405180910390f35b34801561014f57600080fd5b5061016a600480360381019061016591906109d3565b610404565b6040516101779190610bbb565b60405180910390f35b61018861041c565b005b34801561019657600080fd5b506101b160048036038101906101ac91906109fc565b610539565b6040516101be9190610b55565b60405180910390f35b60035481565b60008054906101000a900473ffffffffffffffffffffffffffffffffffffffff1681565b60008054906101000a900473ffffffffffffffffffffffffffffffffffffffff1673ffffffffffffffffffffffffffffffffffffffff163373ffffffffffffffffffffffffffffffffffffffff161461024957600080fd5b60006002805490501161025b57600080fd5b6000610265610578565b90506000600282815481106102a3577f4e487b7100000000000000000000000000000000000000000000000000000000600052603260045260246000fd5b9060005260206000200160009054906101000a900473ffffffffffffffffffffffffffffffffffffffff169050600060035490508173ffffffffffffffffffffffffffffffffffffffff166108fc829081150290604051600060405180830381858888f1935050505015801561031d573d6000803e3d6000fd5b50600060038190555061032e6107ad565b7f9c2270628a9b29d30ae96b6c4c14ed646ee134febdce38a5b77f2bde9cea2e20828260405161035f929190610b70565b60405180910390a1505050565b6000600354905090565b606060028054806020026020016040519081016040528092919081815260200182805480156103fa57602002820191906000526020600020905b8160009054906101000a900473ffffffffffffffffffffffffffffffffffffffff1673ffffffffffffffffffffffffffffffffffffffff16815260200190600101908083116103b0575b5050505050905090565b60016020528060005260406000206000915090505481565b655af3107a4000341161042e57600080fd5b34600360008282546104409190610c0f565b925050819055506002339080600181540180825580915050600190039060005260206000200160009091909190916101000a81548173ffffffffffffffffffffffffffffffffffffffff021916908373ffffffffffffffffffffffffffffffffffffffff16021790555034600160003373ffffffffffffffffffffffffffffffffffffffff1673ffffffffffffffffffffffffffffffffffffffff16815260200190815260200160002060008282546104f99190610c0f565b925050819055507f52e92d4898337244a39bd42674ac561eadfd3959e947deec1c0ab82dd58b5a753360405161052f9190610b3a565b60405180910390a1565b6002818154811061054957600080fd5b906000526020600020016000915054906101000a900473ffffffffffffffffffffffffffffffffffffffff1681565b6000806000905060005b6002805490508110156106535760016000600283815481106105cd577f4e487b7100000000000000000000000000000000000000000000000000000000600052603260045260246000fd5b9060005260206000200160009054906101000a900473ffffffffffffffffffffffffffffffffffffffff1673ffffffffffffffffffffffffffffffffffffffff1673ffffffffffffffffffffffffffffffffffffffff168152602001908152602001600020548261063e9190610c0f565b9150808061064b90610d74565b915050610582565b50600042448360405160200161066b93929190610afd565b6040516020818303038152906040528051906020012060001c905060008060005b6002805490508110156107a257600085606460016000600286815481106106dc577f4e487b7100000000000000000000000000000000000000000000000000000000600052603260045260246000fd5b9060005260206000200160009054906101000a900473ffffffffffffffffffffffffffffffffffffffff1673ffffffffffffffffffffffffffffffffffffffff1673ffffffffffffffffffffffffffffffffffffffff1681526020019081526020016000205461074c9190610c96565b6107569190610c65565b90508285101580156107725750808361076f9190610c0f565b85105b1561078057819350506107a2565b808361078c9190610c0f565b925050808061079a90610d74565b91505061068c565b508194505050505090565b60005b60028054905081101561087957600060016000600284815481106107fd577f4e487b7100000000000000000000000000000000000000000000000000000000600052603260045260246000fd5b9060005260206000200160009054906101000a900473ffffffffffffffffffffffffffffffffffffffff1673ffffffffffffffffffffffffffffffffffffffff1673ffffffffffffffffffffffffffffffffffffffff16815260200190815260200160002081905550808061087190610d74565b9150506107b0565b50600067ffffffffffffffff8111156108bb577f4e487b7100000000000000000000000000000000000000000000000000000000600052604160045260246000fd5b6040519080825280602002602001820160405280156108e95781602001602082028036833780820191505090505b50600290805190602001906108ff929190610902565b50565b82805482825590600052602060002090810192821561097b579160200282015b8281111561097a5782518260006101000a81548173ffffffffffffffffffffffffffffffffffffffff021916908373ffffffffffffffffffffffffffffffffffffffff16021790555091602001919060010190610922565b5b509050610988919061098c565b5090565b5b808211156109a557600081600090555060010161098d565b5090565b6000813590506109b881610e25565b92915050565b6000813590506109cd81610e3c565b92915050565b6000602082840312156109e557600080fd5b60006109f3848285016109a9565b91505092915050565b600060208284031215610a0e57600080fd5b6000610a1c848285016109be565b91505092915050565b6000610a318383610a4c565b60208301905092915050565b610a4681610d3e565b82525050565b610a5581610d02565b82525050565b610a6481610d02565b82525050565b610a7381610cf0565b82525050565b6000610a8482610be6565b610a8e8185610bfe565b9350610a9983610bd6565b8060005b83811015610aca578151610ab18882610a25565b9750610abc83610bf1565b925050600181019050610a9d565b5085935050505092915050565b610ae081610d34565b82525050565b610af7610af282610d34565b610dbd565b82525050565b6000610b098286610ae6565b602082019150610b198285610ae6565b602082019150610b298284610ae6565b602082019150819050949350505050565b6000602082019050610b4f6000830184610a6a565b92915050565b6000602082019050610b6a6000830184610a5b565b92915050565b6000604082019050610b856000830185610a3d565b610b926020830184610ad7565b9392505050565b60006020820190508181036000830152610bb38184610a79565b905092915050565b6000602082019050610bd06000830184610ad7565b92915050565b6000819050602082019050919050565b600081519050919050565b6000602082019050919050565b600082825260208201905092915050565b6000610c1a82610d34565b9150610c2583610d34565b9250827fffffffffffffffffffffffffffffffffffffffffffffffffffffffffffffffff03821115610c5a57610c59610dc7565b5b828201905092915050565b6000610c7082610d34565b9150610c7b83610d34565b925082610c8b57610c8a610df6565b5b828204905092915050565b6000610ca182610d34565b9150610cac83610d34565b9250817fffffffffffffffffffffffffffffffffffffffffffffffffffffffffffffffff0483118215151615610ce557610ce4610dc7565b5b828202905092915050565b6000610cfb82610d14565b9050919050565b6000610d0d82610d14565b9050919050565b600073ffffffffffffffffffffffffffffffffffffffff82169050919050565b6000819050919050565b6000610d4982610d50565b9050919050565b6000610d5b82610d62565b9050919050565b6000610d6d82610d14565b9050919050565b6000610d7f82610d34565b91507fffffffffffffffffffffffffffffffffffffffffffffffffffffffffffffffff821415610db257610db1610dc7565b5b600182019050919050565b6000819050919050565b7f4e487b7100000000000000000000000000000000000000000000000000000000600052601160045260246000fd5b7f4e487b7100000000000000000000000000000000000000000000000000000000600052601260045260246000fd5b610e2e81610cf0565b8114610e3957600080fd5b50565b610e4581610d34565b8114610e5057600080fd5b5056fea2646970667358221220baa54e6b2c0f268f611d4ff512a4d81d48a03492beb24a96b8a5ff8196764a3e64736f6c63430008030033",
  "immutableReferences": {},
  "source": "pragma solidity ^0.8.0;\r\n\r\ncontract Lottery {\r\n    address public manager;\r\n    mapping(address => uint) public investments;\r\n    address payable[] public players;\r\n\r\n    event NewPlayer(address player);\r\n    event Winner(address winner, uint amount);\r\n    uint public totalAmount = 0;\r\n\r\n    constructor() {\r\n        manager = msg.sender;\r\n    }\r\n\r\n    function enter() public payable {\r\n        require(msg.value > 0.0001 ether);\r\n        totalAmount += msg.value;\r\n        players.push(payable(msg.sender));\r\n        investments[msg.sender] += msg.value;\r\n        emit NewPlayer(msg.sender);\r\n    }\r\n\r\n    function pickWinner() public restricted {\r\n        require(players.length > 0);\r\n        uint index = generateRandomIndex();\r\n        address payable winner = players[index];\r\n        uint amount = totalAmount;\r\n        winner.transfer(amount);\r\n        totalAmount = 0;\r\n        reset();\r\n        emit Winner(winner, amount);\r\n    }\r\n\r\n    function generateRandomIndex() private view returns (uint) {\r\n        uint totalInvestments = 0;\r\n        for (uint256 i = 0; i < players.length; i++) {\r\n            totalInvestments += investments[players[i]];\r\n        }\r\n        uint256 randomNumber = uint256(keccak256(abi.encodePacked(block.timestamp, block.difficulty, totalInvestments)));\r\n        uint256 index = 0;\r\n        uint256 previousPercentage = 0;\r\n        for (uint256 i = 0; i < players.length; i++) {\r\n            uint256 playerPercentage = investments[players[i]] * 100 / totalInvestments;\r\n            if (randomNumber >= previousPercentage && randomNumber < (previousPercentage + playerPercentage)) {\r\n                index = i;\r\n                break;\r\n            }\r\n            previousPercentage += playerPercentage;\r\n        }\r\n        return index;\r\n    }\r\n\r\n    function reset() private {\r\n        for (uint256 i = 0; i < players.length; i++) {\r\n            investments[players[i]] = 0;\r\n        }\r\n        players = new address payable[](0);\r\n    }\r\n\r\n    function getPlayers() public view returns (address payable[] memory) {\r\n        return players;\r\n    }\r\n\r\n    function getTotalAmount() public view returns (uint){\r\n        return totalAmount;\r\n    }\r\n\r\n    modifier restricted() {\r\n        require(msg.sender == manager);\r\n        _;\r\n    }\r\n}",
  "sourcePath": "C:\\solidityPot\\contracts\\Lottery.sol",
  "compiler": {
    "name": "solc",
    "version": "0.8.3+commit.8d00100c.Emscripten.clang"
  },
  "schemaVersion": "3.4.13",
  "updatedAt": "2023-03-10T12:16:11.166Z",
  "devdoc": {
    "kind": "dev",
    "methods": {},
    "version": 1
  },
  "userdoc": {
    "kind": "user",
    "methods": {},
    "version": 1
  }
}