{
  "contractName": "Lottery",
  "abi": [
    {
      "inputs": [],
      "stateMutability": "nonpayable",
      "type": "constructor"
    },
    {
      "anonymous": false,
      "inputs": [
        {
          "indexed": false,
          "internalType": "address",
          "name": "player",
          "type": "address"
        },
        {
          "indexed": false,
          "internalType": "uint256",
          "name": "amount",
          "type": "uint256"
        }
      ],
      "name": "LotteryEnter",
      "type": "event"
    },
    {
      "anonymous": false,
      "inputs": [
        {
          "indexed": false,
          "internalType": "address",
          "name": "winner",
          "type": "address"
        },
        {
          "indexed": false,
          "internalType": "uint256",
          "name": "amount",
          "type": "uint256"
        }
      ],
      "name": "Winner",
      "type": "event"
    },
    {
      "inputs": [],
      "name": "owner",
      "outputs": [
        {
          "internalType": "address",
          "name": "",
          "type": "address"
        }
      ],
      "stateMutability": "view",
      "type": "function",
      "constant": true
    },
    {
      "inputs": [
        {
          "internalType": "uint256",
          "name": "",
          "type": "uint256"
        },
        {
          "internalType": "uint256",
          "name": "",
          "type": "uint256"
        }
      ],
      "name": "players",
      "outputs": [
        {
          "internalType": "address",
          "name": "",
          "type": "address"
        }
      ],
      "stateMutability": "view",
      "type": "function",
      "constant": true
    },
    {
      "inputs": [],
      "name": "enter",
      "outputs": [],
      "stateMutability": "payable",
      "type": "function",
      "payable": true
    },
    {
      "inputs": [],
      "name": "pickWinner",
      "outputs": [
        {
          "internalType": "address",
          "name": "",
          "type": "address"
        }
      ],
      "stateMutability": "nonpayable",
      "type": "function"
    },
    {
      "inputs": [],
      "name": "getTotalAmount",
      "outputs": [
        {
          "internalType": "uint256",
          "name": "",
          "type": "uint256"
        }
      ],
      "stateMutability": "view",
      "type": "function",
      "constant": true
    },
    {
      "inputs": [],
      "name": "getState",
      "outputs": [
        {
          "internalType": "enum Lottery.State",
          "name": "",
          "type": "uint8"
        }
      ],
      "stateMutability": "view",
      "type": "function",
      "constant": true
    },
    {
      "inputs": [],
      "name": "getCurrentTime",
      "outputs": [
        {
          "internalType": "uint256",
          "name": "",
          "type": "uint256"
        }
      ],
      "stateMutability": "view",
      "type": "function",
      "constant": true
    },
    {
      "inputs": [
        {
          "internalType": "uint256",
          "name": "lottery_round",
          "type": "uint256"
        }
      ],
      "name": "getLotteryPlayers",
      "outputs": [
        {
          "components": [
            {
              "internalType": "address",
              "name": "player_address",
              "type": "address"
            },
            {
              "internalType": "uint256",
              "name": "amount_bet",
              "type": "uint256"
            }
          ],
          "internalType": "struct Lottery.Player[]",
          "name": "",
          "type": "tuple[]"
        }
      ],
      "stateMutability": "view",
      "type": "function",
      "constant": true
    },
    {
      "inputs": [],
      "name": "getCurrentLotteryPlayers",
      "outputs": [
        {
          "components": [
            {
              "internalType": "address",
              "name": "player_address",
              "type": "address"
            },
            {
              "internalType": "uint256",
              "name": "amount_bet",
              "type": "uint256"
            }
          ],
          "internalType": "struct Lottery.Player[]",
          "name": "",
          "type": "tuple[]"
        }
      ],
      "stateMutability": "view",
      "type": "function",
      "constant": true
    },
    {
      "inputs": [],
      "name": "getLotteryNumber",
      "outputs": [
        {
          "internalType": "uint256",
          "name": "",
          "type": "uint256"
        }
      ],
      "stateMutability": "view",
      "type": "function",
      "constant": true
    }
  ],
  "bytecode": "0x60806040526001600055600060015542600655600060075534801561002357600080fd5b5033600260006101000a81548173ffffffffffffffffffffffffffffffffffffffff021916908373ffffffffffffffffffffffffffffffffffffffff1602179055506000600560146101000a81548160ff021916908360018111156100b1577f4e487b7100000000000000000000000000000000000000000000000000000000600052602160045260246000fd5b0217905550611261806100c56000396000f3fe6080604052600436106100915760003560e01c80638da5cb5b116100595780638da5cb5b1461016d578063998f1b8014610198578063a646daf6146101d5578063e97dcb6214610212578063f979db711461021c57610091565b80631865c57d1461009657806329cb924d146100c15780635b2a3503146100ec5780635d495aea1461011757806365ac434114610142575b600080fd5b3480156100a257600080fd5b506100ab610247565b6040516100b89190610f62565b60405180910390f35b3480156100cd57600080fd5b506100d661025e565b6040516100e39190610f7d565b60405180910390f35b3480156100f857600080fd5b50610101610268565b60405161010e9190610f40565b60405180910390f35b34801561012357600080fd5b5061012c61027a565b6040516101399190610ed3565b60405180910390f35b34801561014e57600080fd5b506101576105e6565b6040516101649190610f7d565b60405180910390f35b34801561017957600080fd5b506101826105f0565b60405161018f9190610ed3565b60405180910390f35b3480156101a457600080fd5b506101bf60048036038101906101ba9190610d2d565b610616565b6040516101cc9190610ed3565b60405180910390f35b3480156101e157600080fd5b506101fc60048036038101906101f79190610d04565b610664565b6040516102099190610f40565b60405180910390f35b61021a6108a8565b005b34801561022857600080fd5b50610231610c5a565b60405161023e9190610f7d565b60405180910390f35b6000600560149054906101000a900460ff16905090565b6000600654905090565b6060610275600054610664565b905090565b6000600260009054906101000a900473ffffffffffffffffffffffffffffffffffffffff1673ffffffffffffffffffffffffffffffffffffffff163373ffffffffffffffffffffffffffffffffffffffff16146102d657600080fd5b6000600460008054815260200190815260200160002080549050116102fa57600080fd5b6000610307600754610c63565b90506000805b6004600080548152602001908152602001600020805490508110156104d25760006004600080548152602001908152602001600020828154811061037a577f4e487b7100000000000000000000000000000000000000000000000000000000600052603260045260246000fd5b9060005260206000200160009054906101000a900473ffffffffffffffffffffffffffffffffffffffff16905082841180156104155750600360008054815260200190815260200160002060008273ffffffffffffffffffffffffffffffffffffffff1673ffffffffffffffffffffffffffffffffffffffff16815260200190815260200160002060010154836104119190610fd1565b8411155b1561045c5780600560006101000a81548173ffffffffffffffffffffffffffffffffffffffff021916908373ffffffffffffffffffffffffffffffffffffffff1602179055505b600360008054815260200190815260200160002060008273ffffffffffffffffffffffffffffffffffffffff1673ffffffffffffffffffffffffffffffffffffffff16815260200190815260200160002060010154836104bc9190610fd1565b92505080806104ca906110be565b91505061030d565b506000479050600560009054906101000a900473ffffffffffffffffffffffffffffffffffffffff1673ffffffffffffffffffffffffffffffffffffffff166108fc829081150290604051600060405180830381858888f19350505050158015610540573d6000803e3d6000fd5b50600080815480929190610553906110be565b919050555060006007819055507f9c2270628a9b29d30ae96b6c4c14ed646ee134febdce38a5b77f2bde9cea2e20600560009054906101000a900473ffffffffffffffffffffffffffffffffffffffff16826040516105b3929190610eee565b60405180910390a1600560009054906101000a900473ffffffffffffffffffffffffffffffffffffffff16935050505090565b6000600754905090565b600260009054906101000a900473ffffffffffffffffffffffffffffffffffffffff1681565b6004602052816000526040600020818154811061063257600080fd5b906000526020600020016000915091509054906101000a900473ffffffffffffffffffffffffffffffffffffffff1681565b606060006004600084815260200190815260200160002080549050905060008167ffffffffffffffff8111156106c3577f4e487b7100000000000000000000000000000000000000000000000000000000600052604160045260246000fd5b6040519080825280602002602001820160405280156106fc57816020015b6106e9610cbf565b8152602001906001900390816106e15790505b50905060005b8281101561089d576000600460008781526020019081526020016000208281548110610757577f4e487b7100000000000000000000000000000000000000000000000000000000600052603260045260246000fd5b9060005260206000200160009054906101000a900473ffffffffffffffffffffffffffffffffffffffff16905060006003600088815260200190815260200160002060008373ffffffffffffffffffffffffffffffffffffffff1673ffffffffffffffffffffffffffffffffffffffff1681526020019081526020016000209050806040518060400160405290816000820160009054906101000a900473ffffffffffffffffffffffffffffffffffffffff1673ffffffffffffffffffffffffffffffffffffffff1673ffffffffffffffffffffffffffffffffffffffff16815260200160018201548152505084848151811061087d577f4e487b7100000000000000000000000000000000000000000000000000000000600052603260045260246000fd5b602002602001018190525050508080610895906110be565b915050610702565b508092505050919050565b655af3107a400034116108ba57600080fd5b6000805b600460008054815260200190815260200160002080549050811015610a9d573373ffffffffffffffffffffffffffffffffffffffff1660046000805481526020019081526020016000208281548110610940577f4e487b7100000000000000000000000000000000000000000000000000000000600052603260045260246000fd5b9060005260206000200160009054906101000a900473ffffffffffffffffffffffffffffffffffffffff1673ffffffffffffffffffffffffffffffffffffffff161415610a8a5734600360008054815260200190815260200160002060003373ffffffffffffffffffffffffffffffffffffffff1673ffffffffffffffffffffffffffffffffffffffff16815260200190815260200160002060010160008282546109eb9190610fd1565b9250508190555033600360008054815260200190815260200160002060003373ffffffffffffffffffffffffffffffffffffffff1673ffffffffffffffffffffffffffffffffffffffff16815260200190815260200160002060000160006101000a81548173ffffffffffffffffffffffffffffffffffffffff021916908373ffffffffffffffffffffffffffffffffffffffff160217905550600191505b8080610a95906110be565b9150506108be565b5080610c055734600360008054815260200190815260200160002060003373ffffffffffffffffffffffffffffffffffffffff1673ffffffffffffffffffffffffffffffffffffffff1681526020019081526020016000206001018190555033600360008054815260200190815260200160002060003373ffffffffffffffffffffffffffffffffffffffff1673ffffffffffffffffffffffffffffffffffffffff16815260200190815260200160002060000160006101000a81548173ffffffffffffffffffffffffffffffffffffffff021916908373ffffffffffffffffffffffffffffffffffffffff1602179055506004600080548152602001908152602001600020339080600181540180825580915050600190039060005260206000200160009091909190916101000a81548173ffffffffffffffffffffffffffffffffffffffff021916908373ffffffffffffffffffffffffffffffffffffffff1602179055505b3460076000828254610c179190610fd1565b925050819055507fe70addbf44fe59dc57d765bdf5ff7c30025c385e716634e9c2848dd2eaba56893334604051610c4f929190610f17565b60405180910390a150565b60008054905090565b600060016000815480929190610c78906110be565b9190505550814233600154604051602001610c9593929190610e96565b6040516020818303038152906040528051906020012060001c610cb89190611135565b9050919050565b6040518060400160405280600073ffffffffffffffffffffffffffffffffffffffff168152602001600081525090565b600081359050610cfe81611214565b92915050565b600060208284031215610d1657600080fd5b6000610d2484828501610cef565b91505092915050565b60008060408385031215610d4057600080fd5b6000610d4e85828601610cef565b9250506020610d5f85828601610cef565b9150509250929050565b6000610d758383610e32565b60408301905092915050565b610d8a81611076565b82525050565b610d9981611027565b82525050565b610da881611027565b82525050565b610dbf610dba82611027565b611107565b82525050565b6000610dd082610fa8565b610dda8185610fc0565b9350610de583610f98565b8060005b83811015610e16578151610dfd8882610d69565b9750610e0883610fb3565b925050600181019050610de9565b5085935050505092915050565b610e2c81611088565b82525050565b604082016000820151610e486000850182610d90565b506020820151610e5b6020850182610e61565b50505050565b610e6a8161106c565b82525050565b610e798161106c565b82525050565b610e90610e8b8261106c565b61112b565b82525050565b6000610ea28286610e7f565b602082019150610eb28285610dae565b601482019150610ec28284610e7f565b602082019150819050949350505050565b6000602082019050610ee86000830184610d9f565b92915050565b6000604082019050610f036000830185610d81565b610f106020830184610e70565b9392505050565b6000604082019050610f2c6000830185610d9f565b610f396020830184610e70565b9392505050565b60006020820190508181036000830152610f5a8184610dc5565b905092915050565b6000602082019050610f776000830184610e23565b92915050565b6000602082019050610f926000830184610e70565b92915050565b6000819050602082019050919050565b600081519050919050565b6000602082019050919050565b600082825260208201905092915050565b6000610fdc8261106c565b9150610fe78361106c565b9250827fffffffffffffffffffffffffffffffffffffffffffffffffffffffffffffffff0382111561101c5761101b611166565b5b828201905092915050565b60006110328261104c565b9050919050565b600081905061104782611200565b919050565b600073ffffffffffffffffffffffffffffffffffffffff82169050919050565b6000819050919050565b60006110818261109a565b9050919050565b600061109382611039565b9050919050565b60006110a5826110ac565b9050919050565b60006110b78261104c565b9050919050565b60006110c98261106c565b91507fffffffffffffffffffffffffffffffffffffffffffffffffffffffffffffffff8214156110fc576110fb611166565b5b600182019050919050565b600061111282611119565b9050919050565b6000611124826111f3565b9050919050565b6000819050919050565b60006111408261106c565b915061114b8361106c565b92508261115b5761115a611195565b5b828206905092915050565b7f4e487b7100000000000000000000000000000000000000000000000000000000600052601160045260246000fd5b7f4e487b7100000000000000000000000000000000000000000000000000000000600052601260045260246000fd5b7f4e487b7100000000000000000000000000000000000000000000000000000000600052602160045260246000fd5b60008160601b9050919050565b60028110611211576112106111c4565b5b50565b61121d8161106c565b811461122857600080fd5b5056fea2646970667358221220f9f182cfeea5f4187468abbe2e01e56a0bd293a3dc73c0be0fc83a57f581879864736f6c63430008030033",
  "immutableReferences": {},
  "source": "pragma solidity ^0.8.0;\r\n\r\ncontract Lottery {\r\n\r\n    enum State { Active, Close }\r\n\r\n    struct Player {\r\n        address player_address;\r\n        uint amount_bet;\r\n    }\r\n\r\n    uint lotteryNumber = 1;\r\n    uint randNonce = 0;\r\n\r\n    address public owner;\r\n\r\n    //Players data by lottery number\r\n    mapping(uint => mapping(address => Player)) private players_data;\r\n    //Players by lottery number\r\n    mapping(uint => address[]) public players;\r\n\r\n    address payable private winner;\r\n    State private state;\r\n\r\n    uint private currentTime = block.timestamp;\r\n\r\n    event LotteryEnter(address player, uint amount);\r\n    event Winner(address winner, uint amount);\r\n    uint private totalAmount = 0;\r\n\r\n    constructor() {\r\n        owner = msg.sender;\r\n        state = State.Active;\r\n    }\r\n\r\n    //Extend payable, mean it need a transaction on blockchain to be executed\r\n    //Add a new ticket to the list of ticket\r\n    function enter() public payable {\r\n        require(msg.value > 0.0001 ether);\r\n\r\n        bool credited = false;\r\n        for(uint i = 0; i < players[lotteryNumber].length; i ++){\r\n            if (players[lotteryNumber][i] == msg.sender){\r\n                players_data[lotteryNumber][msg.sender].amount_bet += msg.value;\r\n                players_data[lotteryNumber][msg.sender].player_address = msg.sender;\r\n                credited = true;\r\n            }\r\n        }\r\n\r\n        if(!credited){\r\n            players_data[lotteryNumber][msg.sender].amount_bet = msg.value;\r\n            players_data[lotteryNumber][msg.sender].player_address = msg.sender;\r\n            players[lotteryNumber].push(payable(msg.sender));\r\n        }\r\n\r\n        totalAmount += msg.value;\r\n        emit LotteryEnter(msg.sender, msg.value);\r\n    }\r\n\r\n    //Choose a winner by choosing a random ticket, consedering the value of each ticket\r\n    function pickWinner() public restricted returns (address) {\r\n        require (players[lotteryNumber].length > 0);\r\n\r\n        uint winAmountIndex = randMod(totalAmount);\r\n        uint amountIndex = 0;\r\n\r\n        for(uint i = 0; i < players[lotteryNumber].length; i ++){\r\n            address currentPlayer = players[lotteryNumber][i];\r\n            if(winAmountIndex > amountIndex && winAmountIndex <= amountIndex + players_data[lotteryNumber][currentPlayer].amount_bet){\r\n                winner = payable(currentPlayer);\r\n            }\r\n            amountIndex += players_data[lotteryNumber][currentPlayer].amount_bet;\r\n        }\r\n        \r\n        uint amount = address(this).balance;\r\n        winner.transfer(amount);\r\n\r\n        lotteryNumber++;\r\n        totalAmount = 0;\r\n        emit Winner(winner, amount);\r\n        return winner;\r\n    }\r\n\r\n    //Return the total amount of the pot\r\n    function getTotalAmount() public view returns (uint){\r\n        return totalAmount;\r\n    }\r\n\r\n    //Return the state of the lottery\r\n    function getState() public view returns (State) {\r\n        return state;\r\n    }\r\n\r\n    //Not implemented\r\n    function getCurrentTime() public view returns (uint) {\r\n        return currentTime;\r\n    }\r\n\r\n    //Return players of a lottery round\r\n    function getLotteryPlayers(uint lottery_round) public view returns (Player[] memory) {\r\n        uint playerCount = players[lottery_round].length;\r\n        Player[] memory list = new Player[](playerCount);\r\n\r\n        for (uint i = 0; i < playerCount; i++) {\r\n            address currentPlayer = players[lottery_round][i];\r\n            Player storage p = players_data[lottery_round][currentPlayer];\r\n            list[i] = p;\r\n        }\r\n        \r\n        return list;\r\n    }\r\n\r\n    //Return current lottery players\r\n    function getCurrentLotteryPlayers() public view returns (Player[] memory) {\r\n        return getLotteryPlayers(lotteryNumber);\r\n    }\r\n\r\n    //Return the current lottery number\r\n    function getLotteryNumber() public view returns (uint) {\r\n        return lotteryNumber;\r\n    }\r\n\r\n    //Generate a random number with modulo\r\n    function randMod(uint _modulus)private returns(uint)\r\n    {\r\n        randNonce++;\r\n        return uint(keccak256(abi.encodePacked(block.timestamp,msg.sender,randNonce))) % _modulus;\r\n    }\r\n\r\n    //Control access in a require function\r\n    modifier restricted() {\r\n        require(msg.sender == owner);\r\n        _;\r\n    }\r\n}",
  "sourcePath": "C:\\Users\\qfond\\git\\solidityPot\\contracts\\Lottery.sol",
  "compiler": {
    "name": "solc",
    "version": "0.8.3+commit.8d00100c.Emscripten.clang"
  },
  "schemaVersion": "3.4.13",
  "updatedAt": "2023-03-21T09:19:19.784Z",
  "networkType": "ethereum",
  "devdoc": {
    "kind": "dev",
    "methods": {},
    "version": 1
  },
  "userdoc": {
    "kind": "user",
    "methods": {},
    "version": 1
  }
}