{
  "contractName": "Lottery",
  "abi": [
    {
      "inputs": [],
      "stateMutability": "nonpayable",
      "type": "constructor"
    },
    {
      "anonymous": false,
      "inputs": [
        {
          "indexed": false,
          "internalType": "address",
          "name": "player",
          "type": "address"
        },
        {
          "indexed": false,
          "internalType": "uint256",
          "name": "amount",
          "type": "uint256"
        }
      ],
      "name": "LotteryEnter",
      "type": "event"
    },
    {
      "anonymous": false,
      "inputs": [
        {
          "indexed": false,
          "internalType": "address",
          "name": "winner",
          "type": "address"
        },
        {
          "indexed": false,
          "internalType": "uint256",
          "name": "amount",
          "type": "uint256"
        }
      ],
      "name": "Winner",
      "type": "event"
    },
    {
      "inputs": [],
      "name": "manager",
      "outputs": [
        {
          "internalType": "address",
          "name": "",
          "type": "address"
        }
      ],
      "stateMutability": "view",
      "type": "function"
    },
    {
      "inputs": [
        {
          "internalType": "uint256",
          "name": "",
          "type": "uint256"
        }
      ],
      "name": "tickets",
      "outputs": [
        {
          "internalType": "address",
          "name": "",
          "type": "address"
        }
      ],
      "stateMutability": "view",
      "type": "function"
    },
    {
      "inputs": [],
      "name": "enter",
      "outputs": [],
      "stateMutability": "payable",
      "type": "function"
    },
    {
      "inputs": [],
      "name": "pickWinner",
      "outputs": [],
      "stateMutability": "nonpayable",
      "type": "function"
    },
    {
      "inputs": [],
      "name": "getTotalAmount",
      "outputs": [
        {
          "internalType": "uint256",
          "name": "",
          "type": "uint256"
        }
      ],
      "stateMutability": "view",
      "type": "function"
    },
    {
      "inputs": [],
      "name": "getState",
      "outputs": [
        {
          "internalType": "enum Lottery.State",
          "name": "",
          "type": "uint8"
        }
      ],
      "stateMutability": "view",
      "type": "function"
    },
    {
      "inputs": [],
      "name": "getCurrentTime",
      "outputs": [
        {
          "internalType": "uint256",
          "name": "",
          "type": "uint256"
        }
      ],
      "stateMutability": "view",
      "type": "function"
    },
    {
      "inputs": [],
      "name": "getTickets",
      "outputs": [
        {
          "internalType": "address[]",
          "name": "",
          "type": "address[]"
        }
      ],
      "stateMutability": "view",
      "type": "function"
    }
  ],
  "bytecode": "0x60806040526000805542600555600060065534801561001d57600080fd5b5033600160006101000a81548173ffffffffffffffffffffffffffffffffffffffff021916908373ffffffffffffffffffffffffffffffffffffffff1602179055506000600460146101000a81548160ff021916908360018111156100ab577f4e487b7100000000000000000000000000000000000000000000000000000000600052602160045260246000fd5b0217905550610f0d806100bf6000396000f3fe60806040526004361061007b5760003560e01c806350b447121161004e57806350b447121461012c5780635d495aea1461016957806365ac434114610180578063e97dcb62146101ab5761007b565b80631865c57d1461008057806329cb924d146100ab578063481c6a75146100d65780634ed0262214610101575b600080fd5b34801561008c57600080fd5b506100956101b5565b6040516100a29190610c0e565b60405180910390f35b3480156100b757600080fd5b506100c06101cc565b6040516100cd9190610c29565b60405180910390f35b3480156100e257600080fd5b506100eb6101d6565b6040516100f89190610b7f565b60405180910390f35b34801561010d57600080fd5b506101166101fc565b6040516101239190610bec565b60405180910390f35b34801561013857600080fd5b50610153600480360381019061014e9190610a2a565b61028a565b6040516101609190610b7f565b60405180910390f35b34801561017557600080fd5b5061017e6102c9565b005b34801561018c57600080fd5b506101956106e1565b6040516101a29190610c29565b60405180910390f35b6101b36106eb565b005b6000600460149054906101000a900460ff16905090565b6000600554905090565b600160009054906101000a900473ffffffffffffffffffffffffffffffffffffffff1681565b6060600380548060200260200160405190810160405280929190818152602001828054801561028057602002820191906000526020600020905b8160009054906101000a900473ffffffffffffffffffffffffffffffffffffffff1673ffffffffffffffffffffffffffffffffffffffff1681526020019060010190808311610236575b5050505050905090565b6003818154811061029a57600080fd5b906000526020600020016000915054906101000a900473ffffffffffffffffffffffffffffffffffffffff1681565b600160009054906101000a900473ffffffffffffffffffffffffffffffffffffffff1673ffffffffffffffffffffffffffffffffffffffff163373ffffffffffffffffffffffffffffffffffffffff161461032357600080fd5b60006003805490501161033557600080fd5b6000610342600654610913565b90506000805b6003805490508110156104bf57600060038281548110610391577f4e487b7100000000000000000000000000000000000000000000000000000000600052603260045260246000fd5b9060005260206000200160009054906101000a900473ffffffffffffffffffffffffffffffffffffffff16905082841180156104175750600260008273ffffffffffffffffffffffffffffffffffffffff1673ffffffffffffffffffffffffffffffffffffffff16815260200190815260200160002054836104139190610c7d565b8411155b1561045e5780600460006101000a81548173ffffffffffffffffffffffffffffffffffffffff021916908373ffffffffffffffffffffffffffffffffffffffff1602179055505b600260008273ffffffffffffffffffffffffffffffffffffffff1673ffffffffffffffffffffffffffffffffffffffff16815260200190815260200160002054836104a99190610c7d565b92505080806104b790610d6a565b915050610348565b506000479050600460009054906101000a900473ffffffffffffffffffffffffffffffffffffffff1673ffffffffffffffffffffffffffffffffffffffff166108fc829081150290604051600060405180830381858888f1935050505015801561052d573d6000803e3d6000fd5b5060005b6003805490508110156105fa576000600260006003848154811061057e577f4e487b7100000000000000000000000000000000000000000000000000000000600052603260045260246000fd5b9060005260206000200160009054906101000a900473ffffffffffffffffffffffffffffffffffffffff1673ffffffffffffffffffffffffffffffffffffffff1673ffffffffffffffffffffffffffffffffffffffff1681526020019081526020016000208190555080806105f290610d6a565b915050610531565b50600067ffffffffffffffff81111561063c577f4e487b7100000000000000000000000000000000000000000000000000000000600052604160045260246000fd5b60405190808252806020026020018201604052801561066a5781602001602082028036833780820191505090505b506003908051906020019061068092919061096e565b507f9c2270628a9b29d30ae96b6c4c14ed646ee134febdce38a5b77f2bde9cea2e20600460009054906101000a900473ffffffffffffffffffffffffffffffffffffffff16826040516106d4929190610b9a565b60405180910390a1505050565b6000600654905090565b655af3107a400034116106fd57600080fd5b6000805b600380549050811015610810573373ffffffffffffffffffffffffffffffffffffffff166003828154811061075f577f4e487b7100000000000000000000000000000000000000000000000000000000600052603260045260246000fd5b9060005260206000200160009054906101000a900473ffffffffffffffffffffffffffffffffffffffff1673ffffffffffffffffffffffffffffffffffffffff1614156107fd5734600260003373ffffffffffffffffffffffffffffffffffffffff1673ffffffffffffffffffffffffffffffffffffffff16815260200190815260200160002060008282546107f59190610c7d565b925050819055505b808061080890610d6a565b915050610701565b50806108be5734600260003373ffffffffffffffffffffffffffffffffffffffff1673ffffffffffffffffffffffffffffffffffffffff168152602001908152602001600020819055506003339080600181540180825580915050600190039060005260206000200160009091909190916101000a81548173ffffffffffffffffffffffffffffffffffffffff021916908373ffffffffffffffffffffffffffffffffffffffff1602179055505b34600660008282546108d09190610c7d565b925050819055507fe70addbf44fe59dc57d765bdf5ff7c30025c385e716634e9c2848dd2eaba56893334604051610908929190610bc3565b60405180910390a150565b600080600081548092919061092790610d6a565b919050555081423360005460405160200161094493929190610b42565b6040516020818303038152906040528051906020012060001c6109679190610de1565b9050919050565b8280548282559060005260206000209081019282156109e7579160200282015b828111156109e65782518260006101000a81548173ffffffffffffffffffffffffffffffffffffffff021916908373ffffffffffffffffffffffffffffffffffffffff1602179055509160200191906001019061098e565b5b5090506109f491906109f8565b5090565b5b80821115610a115760008160009055506001016109f9565b5090565b600081359050610a2481610ec0565b92915050565b600060208284031215610a3c57600080fd5b6000610a4a84828501610a15565b91505092915050565b6000610a5f8383610a7a565b60208301905092915050565b610a7481610d22565b82525050565b610a8381610cd3565b82525050565b610a9281610cd3565b82525050565b610aa9610aa482610cd3565b610db3565b82525050565b6000610aba82610c54565b610ac48185610c6c565b9350610acf83610c44565b8060005b83811015610b00578151610ae78882610a53565b9750610af283610c5f565b925050600181019050610ad3565b5085935050505092915050565b610b1681610d34565b82525050565b610b2581610d18565b82525050565b610b3c610b3782610d18565b610dd7565b82525050565b6000610b4e8286610b2b565b602082019150610b5e8285610a98565b601482019150610b6e8284610b2b565b602082019150819050949350505050565b6000602082019050610b946000830184610a89565b92915050565b6000604082019050610baf6000830185610a6b565b610bbc6020830184610b1c565b9392505050565b6000604082019050610bd86000830185610a89565b610be56020830184610b1c565b9392505050565b60006020820190508181036000830152610c068184610aaf565b905092915050565b6000602082019050610c236000830184610b0d565b92915050565b6000602082019050610c3e6000830184610b1c565b92915050565b6000819050602082019050919050565b600081519050919050565b6000602082019050919050565b600082825260208201905092915050565b6000610c8882610d18565b9150610c9383610d18565b9250827fffffffffffffffffffffffffffffffffffffffffffffffffffffffffffffffff03821115610cc857610cc7610e12565b5b828201905092915050565b6000610cde82610cf8565b9050919050565b6000819050610cf382610eac565b919050565b600073ffffffffffffffffffffffffffffffffffffffff82169050919050565b6000819050919050565b6000610d2d82610d46565b9050919050565b6000610d3f82610ce5565b9050919050565b6000610d5182610d58565b9050919050565b6000610d6382610cf8565b9050919050565b6000610d7582610d18565b91507fffffffffffffffffffffffffffffffffffffffffffffffffffffffffffffffff821415610da857610da7610e12565b5b600182019050919050565b6000610dbe82610dc5565b9050919050565b6000610dd082610e9f565b9050919050565b6000819050919050565b6000610dec82610d18565b9150610df783610d18565b925082610e0757610e06610e41565b5b828206905092915050565b7f4e487b7100000000000000000000000000000000000000000000000000000000600052601160045260246000fd5b7f4e487b7100000000000000000000000000000000000000000000000000000000600052601260045260246000fd5b7f4e487b7100000000000000000000000000000000000000000000000000000000600052602160045260246000fd5b60008160601b9050919050565b60028110610ebd57610ebc610e70565b5b50565b610ec981610d18565b8114610ed457600080fd5b5056fea2646970667358221220bfd8de7e097fcf94fb45c0dca6531c807236a7598ba3843f1f58a620b9761acc64736f6c63430008030033",
  "immutableReferences": {},
  "source": "pragma solidity ^0.8.0;\r\n\r\ncontract Lottery {\r\n\r\n    enum State { Active, Close }\r\n\r\n    uint randNonce = 0;\r\n\r\n    address public manager;\r\n\r\n    mapping (address => uint) players_amount;\r\n    address[] public tickets;\r\n\r\n    address payable private winner;\r\n    State private state;\r\n\r\n    uint private currentTime = block.timestamp;\r\n\r\n    event LotteryEnter(address player, uint amount);\r\n    event Winner(address winner, uint amount);\r\n    uint private totalAmount = 0;\r\n\r\n    constructor() {\r\n        manager = msg.sender;\r\n        state = State.Active;\r\n    }\r\n\r\n    //Extend payable, mean it need a transaction on blockchain to be executed\r\n    //Add a new ticket to the list of ticket\r\n    function enter() public payable {\r\n        require(msg.value > 0.0001 ether);\r\n\r\n        bool credited = false;\r\n        for(uint i = 0; i < tickets.length; i ++){\r\n            if(tickets[i] == msg.sender){\r\n                players_amount[msg.sender] += msg.value;\r\n            }\r\n        }\r\n\r\n        if(!credited){\r\n            players_amount[msg.sender] = msg.value;\r\n            tickets.push(payable(msg.sender));\r\n        }\r\n\r\n        totalAmount += msg.value;\r\n        emit LotteryEnter(msg.sender, msg.value);\r\n    }\r\n\r\n    //Choose a winner by choosing a random ticket, consedering the value of each ticket\r\n    function pickWinner() public restricted {\r\n        require(tickets.length > 0);\r\n\r\n        uint winAmountIndex = randMod(totalAmount);\r\n        uint amountIndex = 0;\r\n\r\n        for(uint i = 0; i < tickets.length; i ++){\r\n            address currentPlayer = tickets[i];\r\n            if(winAmountIndex > amountIndex && winAmountIndex <= amountIndex + players_amount[currentPlayer]){\r\n                winner = payable(currentPlayer);\r\n            }\r\n            amountIndex += players_amount[currentPlayer];\r\n        }\r\n        \r\n        uint amount = address(this).balance;\r\n        winner.transfer(amount);\r\n\r\n        for (uint i = 0; i < tickets.length; i++) {\r\n            players_amount[tickets[i]] = 0;\r\n        }\r\n        tickets = new address[](0);\r\n        emit Winner(winner, amount);\r\n    }\r\n\r\n    //Return the total amount of the pot\r\n    function getTotalAmount() public view returns (uint){\r\n        return totalAmount;\r\n    }\r\n\r\n    //Return the state of the lottery\r\n    function getState() public view returns (State) {\r\n        return state;\r\n    }\r\n\r\n    //Not implemented\r\n    function getCurrentTime() public view returns (uint) {\r\n        return currentTime;\r\n    }\r\n\r\n    //Return every ticket buyed\r\n    function getTickets() public view returns (address[] memory) {\r\n        return tickets;\r\n    }\r\n\r\n    //To define\r\n    function randMod(uint _modulus)private returns(uint)\r\n    {\r\n        randNonce++;\r\n        return uint(keccak256(abi.encodePacked(block.timestamp,msg.sender,randNonce))) % _modulus;\r\n    }\r\n\r\n    //Control access in a require function\r\n    modifier restricted() {\r\n        require(msg.sender == manager);\r\n        _;\r\n    }\r\n}",
  "sourcePath": "C:\\Users\\qfond\\git\\solidityPot\\contracts\\Lottery.sol",
  "compiler": {
    "name": "solc",
    "version": "0.8.3+commit.8d00100c.Emscripten.clang"
  },
  "schemaVersion": "3.4.13",
  "updatedAt": "2023-03-10T14:56:22.716Z",
  "devdoc": {
    "kind": "dev",
    "methods": {},
    "version": 1
  },
  "userdoc": {
    "kind": "user",
    "methods": {},
    "version": 1
  }
}