{
  "contractName": "Lottery",
  "abi": [
    {
      "inputs": [],
      "stateMutability": "nonpayable",
      "type": "constructor"
    },
    {
      "anonymous": false,
      "inputs": [
        {
          "indexed": false,
          "internalType": "address",
          "name": "player",
          "type": "address"
        }
      ],
      "name": "NewPlayer",
      "type": "event"
    },
    {
      "anonymous": false,
      "inputs": [
        {
          "indexed": false,
          "internalType": "address",
          "name": "winner",
          "type": "address"
        },
        {
          "indexed": false,
          "internalType": "uint256",
          "name": "amount",
          "type": "uint256"
        }
      ],
      "name": "Winner",
      "type": "event"
    },
    {
      "inputs": [],
      "name": "manager",
      "outputs": [
        {
          "internalType": "address",
          "name": "",
          "type": "address"
        }
      ],
      "stateMutability": "view",
      "type": "function"
    },
    {
      "inputs": [
        {
          "internalType": "uint256",
          "name": "",
          "type": "uint256"
        }
      ],
      "name": "players",
      "outputs": [
        {
          "internalType": "address payable",
          "name": "",
          "type": "address"
        }
      ],
      "stateMutability": "view",
      "type": "function"
    },
    {
      "inputs": [],
      "name": "enter",
      "outputs": [],
      "stateMutability": "payable",
      "type": "function"
    },
    {
      "inputs": [],
      "name": "pickWinner",
      "outputs": [],
      "stateMutability": "nonpayable",
      "type": "function"
    },
    {
      "inputs": [],
      "name": "getPlayers",
      "outputs": [
        {
          "internalType": "address payable[]",
          "name": "",
          "type": "address[]"
        }
      ],
      "stateMutability": "view",
      "type": "function"
    },
    {
      "inputs": [],
      "name": "getTotalAmount",
      "outputs": [
        {
          "internalType": "uint256",
          "name": "",
          "type": "uint256"
        }
      ],
      "stateMutability": "view",
      "type": "function"
    }
  ],
  "bytecode": "0x6080604052600060025534801561001557600080fd5b50336000806101000a81548173ffffffffffffffffffffffffffffffffffffffff021916908373ffffffffffffffffffffffffffffffffffffffff1602179055506109c3806100656000396000f3fe6080604052600436106100555760003560e01c8063481c6a751461005a5780635d495aea1461008557806365ac43411461009c5780638b5b9ccc146100c7578063e97dcb62146100f2578063f71d96cb146100fc575b600080fd5b34801561006657600080fd5b5061006f610139565b60405161007c919061072e565b60405180910390f35b34801561009157600080fd5b5061009a61015d565b005b3480156100a857600080fd5b506100b161035c565b6040516100be91906107af565b60405180910390f35b3480156100d357600080fd5b506100dc610366565b6040516100e9919061078d565b60405180910390f35b6100fa6103f4565b005b34801561010857600080fd5b50610123600480360381019061011e91906105f0565b6104bb565b6040516101309190610749565b60405180910390f35b60008054906101000a900473ffffffffffffffffffffffffffffffffffffffff1681565b60008054906101000a900473ffffffffffffffffffffffffffffffffffffffff1673ffffffffffffffffffffffffffffffffffffffff163373ffffffffffffffffffffffffffffffffffffffff16146101b557600080fd5b6000600180549050116101c757600080fd5b60006001805490506101d76104fa565b6101e191906108e7565b905060006001828154811061021f577f4e487b7100000000000000000000000000000000000000000000000000000000600052603260045260246000fd5b9060005260206000200160009054906101000a900473ffffffffffffffffffffffffffffffffffffffff16905060004790508173ffffffffffffffffffffffffffffffffffffffff166108fc829081150290604051600060405180830381858888f19350505050158015610297573d6000803e3d6000fd5b50600067ffffffffffffffff8111156102d9577f4e487b7100000000000000000000000000000000000000000000000000000000600052604160045260246000fd5b6040519080825280602002602001820160405280156103075781602001602082028036833780820191505090505b506001908051906020019061031d929190610534565b507f9c2270628a9b29d30ae96b6c4c14ed646ee134febdce38a5b77f2bde9cea2e20828260405161034f929190610764565b60405180910390a1505050565b6000600254905090565b606060018054806020026020016040519081016040528092919081815260200182805480156103ea57602002820191906000526020600020905b8160009054906101000a900473ffffffffffffffffffffffffffffffffffffffff1673ffffffffffffffffffffffffffffffffffffffff16815260200190600101908083116103a0575b5050505050905090565b655af3107a4000341161040657600080fd5b34600260008282546104189190610803565b925050819055506001339080600181540180825580915050600190039060005260206000200160009091909190916101000a81548173ffffffffffffffffffffffffffffffffffffffff021916908373ffffffffffffffffffffffffffffffffffffffff1602179055507f52e92d4898337244a39bd42674ac561eadfd3959e947deec1c0ab82dd58b5a75336040516104b1919061072e565b60405180910390a1565b600181815481106104cb57600080fd5b906000526020600020016000915054906101000a900473ffffffffffffffffffffffffffffffffffffffff1681565b60004442600180549050604051602001610516939291906106f1565b6040516020818303038152906040528051906020012060001c905090565b8280548282559060005260206000209081019282156105ad579160200282015b828111156105ac5782518260006101000a81548173ffffffffffffffffffffffffffffffffffffffff021916908373ffffffffffffffffffffffffffffffffffffffff16021790555091602001919060010190610554565b5b5090506105ba91906105be565b5090565b5b808211156105d75760008160009055506001016105bf565b5090565b6000813590506105ea81610976565b92915050565b60006020828403121561060257600080fd5b6000610610848285016105db565b91505092915050565b60006106258383610640565b60208301905092915050565b61063a816108a7565b82525050565b6106498161086b565b82525050565b6106588161086b565b82525050565b61066781610859565b82525050565b6000610678826107da565b61068281856107f2565b935061068d836107ca565b8060005b838110156106be5781516106a58882610619565b97506106b0836107e5565b925050600181019050610691565b5085935050505092915050565b6106d48161089d565b82525050565b6106eb6106e68261089d565b6108dd565b82525050565b60006106fd82866106da565b60208201915061070d82856106da565b60208201915061071d82846106da565b602082019150819050949350505050565b6000602082019050610743600083018461065e565b92915050565b600060208201905061075e600083018461064f565b92915050565b60006040820190506107796000830185610631565b61078660208301846106cb565b9392505050565b600060208201905081810360008301526107a7818461066d565b905092915050565b60006020820190506107c460008301846106cb565b92915050565b6000819050602082019050919050565b600081519050919050565b6000602082019050919050565b600082825260208201905092915050565b600061080e8261089d565b91506108198361089d565b9250827fffffffffffffffffffffffffffffffffffffffffffffffffffffffffffffffff0382111561084e5761084d610918565b5b828201905092915050565b60006108648261087d565b9050919050565b60006108768261087d565b9050919050565b600073ffffffffffffffffffffffffffffffffffffffff82169050919050565b6000819050919050565b60006108b2826108b9565b9050919050565b60006108c4826108cb565b9050919050565b60006108d68261087d565b9050919050565b6000819050919050565b60006108f28261089d565b91506108fd8361089d565b92508261090d5761090c610947565b5b828206905092915050565b7f4e487b7100000000000000000000000000000000000000000000000000000000600052601160045260246000fd5b7f4e487b7100000000000000000000000000000000000000000000000000000000600052601260045260246000fd5b61097f8161089d565b811461098a57600080fd5b5056fea2646970667358221220ba65af65f9b022431201dc26759babd8134b7c23e01f24e90eec826b55baf3b564736f6c63430008030033",
  "immutableReferences": {},
  "source": "// SPDX-License-Identifier: MIT\r\npragma solidity ^0.8.0;\r\n\r\ncontract Lottery {\r\n    address public manager;\r\n    address payable[] public players;\r\n\r\n\r\n    event NewPlayer(address player);\r\n    event Winner(address winner, uint amount);\r\n    uint totalAmount = 0;\r\n\r\n    constructor() {\r\n        manager = msg.sender;\r\n    }\r\n\r\n    function enter() public payable {\r\n        require(msg.value > 0.0001 ether);\r\n        totalAmount += msg.value;\r\n        players.push(payable(msg.sender));\r\n        emit NewPlayer(msg.sender);\r\n    }\r\n\r\n    function pickWinner() public restricted {\r\n        require(players.length > 0);\r\n        uint index = random() % players.length;\r\n        address payable winner = players[index];\r\n        uint amount = address(this).balance;\r\n        winner.transfer(amount);\r\n        players = new address payable[](0);\r\n        emit Winner(winner, amount);\r\n    }\r\n\r\n    function getPlayers() public view returns (address payable[] memory) {\r\n        return players;\r\n    }\r\n\r\n    function getTotalAmount() public view returns (uint){\r\n        return totalAmount;\r\n    }\r\n\r\n    function random() private view returns (uint) {\r\n        return uint(keccak256(abi.encodePacked(block.difficulty, block.timestamp, players.length)));\r\n    }\r\n\r\n    modifier restricted() {\r\n        require(msg.sender == manager);\r\n        _;\r\n    }\r\n}\r\n",
  "sourcePath": "C:\\solidityPot\\contracts\\Lottery.sol",
  "compiler": {
    "name": "solc",
    "version": "0.8.3+commit.8d00100c.Emscripten.clang"
  },
  "schemaVersion": "3.4.13",
  "updatedAt": "2023-03-10T11:55:18.513Z",
  "devdoc": {
    "kind": "dev",
    "methods": {},
    "version": 1
  },
  "userdoc": {
    "kind": "user",
    "methods": {},
    "version": 1
  }
}