{
  "contractName": "Lottery",
  "abi": [
    {
      "inputs": [],
      "stateMutability": "nonpayable",
      "type": "constructor"
    },
    {
      "anonymous": false,
      "inputs": [
        {
          "indexed": false,
          "internalType": "address",
          "name": "player",
          "type": "address"
        },
        {
          "indexed": false,
          "internalType": "uint256",
          "name": "amount",
          "type": "uint256"
        }
      ],
      "name": "LotteryEnter",
      "type": "event"
    },
    {
      "anonymous": false,
      "inputs": [
        {
          "indexed": false,
          "internalType": "address",
          "name": "winner",
          "type": "address"
        },
        {
          "indexed": false,
          "internalType": "uint256",
          "name": "amount",
          "type": "uint256"
        }
      ],
      "name": "Winner",
      "type": "event"
    },
    {
      "inputs": [],
      "name": "owner",
      "outputs": [
        {
          "internalType": "address",
          "name": "",
          "type": "address"
        }
      ],
      "stateMutability": "view",
      "type": "function",
      "constant": true
    },
    {
      "inputs": [
        {
          "internalType": "uint256",
          "name": "",
          "type": "uint256"
        },
        {
          "internalType": "uint256",
          "name": "",
          "type": "uint256"
        }
      ],
      "name": "players",
      "outputs": [
        {
          "internalType": "address",
          "name": "",
          "type": "address"
        }
      ],
      "stateMutability": "view",
      "type": "function",
      "constant": true
    },
    {
      "inputs": [],
      "name": "enter",
      "outputs": [],
      "stateMutability": "payable",
      "type": "function",
      "payable": true
    },
    {
      "inputs": [],
      "name": "pickWinner",
      "outputs": [],
      "stateMutability": "nonpayable",
      "type": "function"
    },
    {
      "inputs": [],
      "name": "getTotalAmount",
      "outputs": [
        {
          "internalType": "uint256",
          "name": "",
          "type": "uint256"
        }
      ],
      "stateMutability": "view",
      "type": "function",
      "constant": true
    },
    {
      "inputs": [],
      "name": "getState",
      "outputs": [
        {
          "internalType": "enum Lottery.State",
          "name": "",
          "type": "uint8"
        }
      ],
      "stateMutability": "view",
      "type": "function",
      "constant": true
    },
    {
      "inputs": [],
      "name": "getCurrentTime",
      "outputs": [
        {
          "internalType": "uint256",
          "name": "",
          "type": "uint256"
        }
      ],
      "stateMutability": "view",
      "type": "function",
      "constant": true
    },
    {
      "inputs": [
        {
          "internalType": "uint256",
          "name": "lottery_round",
          "type": "uint256"
        }
      ],
      "name": "getLotteryPlayers",
      "outputs": [
        {
          "components": [
            {
              "internalType": "address",
              "name": "player_address",
              "type": "address"
            },
            {
              "internalType": "uint256",
              "name": "amount_bet",
              "type": "uint256"
            }
          ],
          "internalType": "struct Lottery.Player[]",
          "name": "",
          "type": "tuple[]"
        }
      ],
      "stateMutability": "view",
      "type": "function",
      "constant": true
    },
    {
      "inputs": [],
      "name": "getCurrentLotteryPlayers",
      "outputs": [
        {
          "components": [
            {
              "internalType": "address",
              "name": "player_address",
              "type": "address"
            },
            {
              "internalType": "uint256",
              "name": "amount_bet",
              "type": "uint256"
            }
          ],
          "internalType": "struct Lottery.Player[]",
          "name": "",
          "type": "tuple[]"
        }
      ],
      "stateMutability": "view",
      "type": "function",
      "constant": true
    }
  ],
  "bytecode": "0x60806040526001600055600060015542600655600060075534801561002357600080fd5b5033600260006101000a81548173ffffffffffffffffffffffffffffffffffffffff021916908373ffffffffffffffffffffffffffffffffffffffff1602179055506000600560146101000a81548160ff021916908360018111156100b1577f4e487b7100000000000000000000000000000000000000000000000000000000600052602160045260246000fd5b02179055506111e2806100c56000396000f3fe6080604052600436106100865760003560e01c806365ac43411161005957806365ac4341146101235780638da5cb5b1461014e578063998f1b8014610179578063a646daf6146101b6578063e97dcb62146101f357610086565b80631865c57d1461008b57806329cb924d146100b65780635b2a3503146100e15780635d495aea1461010c575b600080fd5b34801561009757600080fd5b506100a06101fd565b6040516100ad9190610ee3565b60405180910390f35b3480156100c257600080fd5b506100cb610214565b6040516100d89190610efe565b60405180910390f35b3480156100ed57600080fd5b506100f661021e565b6040516101039190610ec1565b60405180910390f35b34801561011857600080fd5b50610121610230565b005b34801561012f57600080fd5b50610138610574565b6040516101459190610efe565b60405180910390f35b34801561015a57600080fd5b5061016361057e565b6040516101709190610e54565b60405180910390f35b34801561018557600080fd5b506101a0600480360381019061019b9190610cae565b6105a4565b6040516101ad9190610e54565b60405180910390f35b3480156101c257600080fd5b506101dd60048036038101906101d89190610c85565b6105f2565b6040516101ea9190610ec1565b60405180910390f35b6101fb610836565b005b6000600560149054906101000a900460ff16905090565b6000600654905090565b606061022b6000546105f2565b905090565b600260009054906101000a900473ffffffffffffffffffffffffffffffffffffffff1673ffffffffffffffffffffffffffffffffffffffff163373ffffffffffffffffffffffffffffffffffffffff161461028a57600080fd5b6000600460008054815260200190815260200160002080549050116102ae57600080fd5b60006102bb600754610be4565b90506000805b6004600080548152602001908152602001600020805490508110156104865760006004600080548152602001908152602001600020828154811061032e577f4e487b7100000000000000000000000000000000000000000000000000000000600052603260045260246000fd5b9060005260206000200160009054906101000a900473ffffffffffffffffffffffffffffffffffffffff16905082841180156103c95750600360008054815260200190815260200160002060008273ffffffffffffffffffffffffffffffffffffffff1673ffffffffffffffffffffffffffffffffffffffff16815260200190815260200160002060010154836103c59190610f52565b8411155b156104105780600560006101000a81548173ffffffffffffffffffffffffffffffffffffffff021916908373ffffffffffffffffffffffffffffffffffffffff1602179055505b600360008054815260200190815260200160002060008273ffffffffffffffffffffffffffffffffffffffff1673ffffffffffffffffffffffffffffffffffffffff16815260200190815260200160002060010154836104709190610f52565b925050808061047e9061103f565b9150506102c1565b506000479050600560009054906101000a900473ffffffffffffffffffffffffffffffffffffffff1673ffffffffffffffffffffffffffffffffffffffff166108fc829081150290604051600060405180830381858888f193505050501580156104f4573d6000803e3d6000fd5b506000808154809291906105079061103f565b919050555060006007819055507f9c2270628a9b29d30ae96b6c4c14ed646ee134febdce38a5b77f2bde9cea2e20600560009054906101000a900473ffffffffffffffffffffffffffffffffffffffff1682604051610567929190610e6f565b60405180910390a1505050565b6000600754905090565b600260009054906101000a900473ffffffffffffffffffffffffffffffffffffffff1681565b600460205281600052604060002081815481106105c057600080fd5b906000526020600020016000915091509054906101000a900473ffffffffffffffffffffffffffffffffffffffff1681565b606060006004600084815260200190815260200160002080549050905060008167ffffffffffffffff811115610651577f4e487b7100000000000000000000000000000000000000000000000000000000600052604160045260246000fd5b60405190808252806020026020018201604052801561068a57816020015b610677610c40565b81526020019060019003908161066f5790505b50905060005b8281101561082b5760006004600087815260200190815260200160002082815481106106e5577f4e487b7100000000000000000000000000000000000000000000000000000000600052603260045260246000fd5b9060005260206000200160009054906101000a900473ffffffffffffffffffffffffffffffffffffffff16905060006003600088815260200190815260200160002060008373ffffffffffffffffffffffffffffffffffffffff1673ffffffffffffffffffffffffffffffffffffffff1681526020019081526020016000209050806040518060400160405290816000820160009054906101000a900473ffffffffffffffffffffffffffffffffffffffff1673ffffffffffffffffffffffffffffffffffffffff1673ffffffffffffffffffffffffffffffffffffffff16815260200160018201548152505084848151811061080b577f4e487b7100000000000000000000000000000000000000000000000000000000600052603260045260246000fd5b6020026020010181905250505080806108239061103f565b915050610690565b508092505050919050565b655af3107a4000341161084857600080fd5b6000805b600460008054815260200190815260200160002080549050811015610a27573373ffffffffffffffffffffffffffffffffffffffff16600460008054815260200190815260200160002082815481106108ce577f4e487b7100000000000000000000000000000000000000000000000000000000600052603260045260246000fd5b9060005260206000200160009054906101000a900473ffffffffffffffffffffffffffffffffffffffff1673ffffffffffffffffffffffffffffffffffffffff161415610a145734600360008054815260200190815260200160002060003373ffffffffffffffffffffffffffffffffffffffff1673ffffffffffffffffffffffffffffffffffffffff16815260200190815260200160002060010160008282546109799190610f52565b9250508190555033600360008054815260200190815260200160002060003373ffffffffffffffffffffffffffffffffffffffff1673ffffffffffffffffffffffffffffffffffffffff16815260200190815260200160002060000160006101000a81548173ffffffffffffffffffffffffffffffffffffffff021916908373ffffffffffffffffffffffffffffffffffffffff1602179055505b8080610a1f9061103f565b91505061084c565b5080610b8f5734600360008054815260200190815260200160002060003373ffffffffffffffffffffffffffffffffffffffff1673ffffffffffffffffffffffffffffffffffffffff1681526020019081526020016000206001018190555033600360008054815260200190815260200160002060003373ffffffffffffffffffffffffffffffffffffffff1673ffffffffffffffffffffffffffffffffffffffff16815260200190815260200160002060000160006101000a81548173ffffffffffffffffffffffffffffffffffffffff021916908373ffffffffffffffffffffffffffffffffffffffff1602179055506004600080548152602001908152602001600020339080600181540180825580915050600190039060005260206000200160009091909190916101000a81548173ffffffffffffffffffffffffffffffffffffffff021916908373ffffffffffffffffffffffffffffffffffffffff1602179055505b3460076000828254610ba19190610f52565b925050819055507fe70addbf44fe59dc57d765bdf5ff7c30025c385e716634e9c2848dd2eaba56893334604051610bd9929190610e98565b60405180910390a150565b600060016000815480929190610bf99061103f565b9190505550814233600154604051602001610c1693929190610e17565b6040516020818303038152906040528051906020012060001c610c3991906110b6565b9050919050565b6040518060400160405280600073ffffffffffffffffffffffffffffffffffffffff168152602001600081525090565b600081359050610c7f81611195565b92915050565b600060208284031215610c9757600080fd5b6000610ca584828501610c70565b91505092915050565b60008060408385031215610cc157600080fd5b6000610ccf85828601610c70565b9250506020610ce085828601610c70565b9150509250929050565b6000610cf68383610db3565b60408301905092915050565b610d0b81610ff7565b82525050565b610d1a81610fa8565b82525050565b610d2981610fa8565b82525050565b610d40610d3b82610fa8565b611088565b82525050565b6000610d5182610f29565b610d5b8185610f41565b9350610d6683610f19565b8060005b83811015610d97578151610d7e8882610cea565b9750610d8983610f34565b925050600181019050610d6a565b5085935050505092915050565b610dad81611009565b82525050565b604082016000820151610dc96000850182610d11565b506020820151610ddc6020850182610de2565b50505050565b610deb81610fed565b82525050565b610dfa81610fed565b82525050565b610e11610e0c82610fed565b6110ac565b82525050565b6000610e238286610e00565b602082019150610e338285610d2f565b601482019150610e438284610e00565b602082019150819050949350505050565b6000602082019050610e696000830184610d20565b92915050565b6000604082019050610e846000830185610d02565b610e916020830184610df1565b9392505050565b6000604082019050610ead6000830185610d20565b610eba6020830184610df1565b9392505050565b60006020820190508181036000830152610edb8184610d46565b905092915050565b6000602082019050610ef86000830184610da4565b92915050565b6000602082019050610f136000830184610df1565b92915050565b6000819050602082019050919050565b600081519050919050565b6000602082019050919050565b600082825260208201905092915050565b6000610f5d82610fed565b9150610f6883610fed565b9250827fffffffffffffffffffffffffffffffffffffffffffffffffffffffffffffffff03821115610f9d57610f9c6110e7565b5b828201905092915050565b6000610fb382610fcd565b9050919050565b6000819050610fc882611181565b919050565b600073ffffffffffffffffffffffffffffffffffffffff82169050919050565b6000819050919050565b60006110028261101b565b9050919050565b600061101482610fba565b9050919050565b60006110268261102d565b9050919050565b600061103882610fcd565b9050919050565b600061104a82610fed565b91507fffffffffffffffffffffffffffffffffffffffffffffffffffffffffffffffff82141561107d5761107c6110e7565b5b600182019050919050565b60006110938261109a565b9050919050565b60006110a582611174565b9050919050565b6000819050919050565b60006110c182610fed565b91506110cc83610fed565b9250826110dc576110db611116565b5b828206905092915050565b7f4e487b7100000000000000000000000000000000000000000000000000000000600052601160045260246000fd5b7f4e487b7100000000000000000000000000000000000000000000000000000000600052601260045260246000fd5b7f4e487b7100000000000000000000000000000000000000000000000000000000600052602160045260246000fd5b60008160601b9050919050565b6002811061119257611191611145565b5b50565b61119e81610fed565b81146111a957600080fd5b5056fea2646970667358221220e632fe019b6e8058a3927a97a60754fa2522215450c39da8ace92b230a27981464736f6c63430008030033",
  "immutableReferences": {},
  "source": "pragma solidity ^0.8.0;\r\n\r\ncontract Lottery {\r\n\r\n    enum State { Active, Close }\r\n\r\n    struct Player {\r\n        address player_address;\r\n        uint amount_bet;\r\n    }\r\n\r\n    uint lotteryNumber = 1;\r\n    uint randNonce = 0;\r\n\r\n    address public owner;\r\n\r\n    //Players data by lottery number\r\n    mapping(uint => mapping(address => Player)) private players_data;\r\n    //Players by lottery number\r\n    mapping(uint => address[]) public players;\r\n\r\n    address payable private winner;\r\n    State private state;\r\n\r\n    uint private currentTime = block.timestamp;\r\n\r\n    event LotteryEnter(address player, uint amount);\r\n    event Winner(address winner, uint amount);\r\n    uint private totalAmount = 0;\r\n\r\n    constructor() {\r\n        owner = msg.sender;\r\n        state = State.Active;\r\n    }\r\n\r\n    //Extend payable, mean it need a transaction on blockchain to be executed\r\n    //Add a new ticket to the list of ticket\r\n    function enter() public payable {\r\n        require(msg.value > 0.0001 ether);\r\n\r\n        bool credited = false;\r\n        for(uint i = 0; i < players[lotteryNumber].length; i ++){\r\n            if (players[lotteryNumber][i] == msg.sender){\r\n                players_data[lotteryNumber][msg.sender].amount_bet += msg.value;\r\n                players_data[lotteryNumber][msg.sender].player_address = msg.sender;\r\n            }\r\n        }\r\n\r\n        if(!credited){\r\n            players_data[lotteryNumber][msg.sender].amount_bet = msg.value;\r\n            players_data[lotteryNumber][msg.sender].player_address = msg.sender;\r\n            players[lotteryNumber].push(payable(msg.sender));\r\n        }\r\n\r\n        totalAmount += msg.value;\r\n        emit LotteryEnter(msg.sender, msg.value);\r\n    }\r\n\r\n    //Choose a winner by choosing a random ticket, consedering the value of each ticket\r\n    function pickWinner() public restricted {\r\n        require (players[lotteryNumber].length > 0);\r\n\r\n        uint winAmountIndex = randMod(totalAmount);\r\n        uint amountIndex = 0;\r\n\r\n        for(uint i = 0; i < players[lotteryNumber].length; i ++){\r\n            address currentPlayer = players[lotteryNumber][i];\r\n            if(winAmountIndex > amountIndex && winAmountIndex <= amountIndex + players_data[lotteryNumber][currentPlayer].amount_bet){\r\n                winner = payable(currentPlayer);\r\n            }\r\n            amountIndex += players_data[lotteryNumber][currentPlayer].amount_bet;\r\n        }\r\n        \r\n        uint amount = address(this).balance;\r\n        winner.transfer(amount);\r\n\r\n        lotteryNumber++;\r\n        totalAmount = 0;\r\n        emit Winner(winner, amount);\r\n    }\r\n\r\n    //Return the total amount of the pot\r\n    function getTotalAmount() public view returns (uint){\r\n        return totalAmount;\r\n    }\r\n\r\n    //Return the state of the lottery\r\n    function getState() public view returns (State) {\r\n        return state;\r\n    }\r\n\r\n    //Not implemented\r\n    function getCurrentTime() public view returns (uint) {\r\n        return currentTime;\r\n    }\r\n\r\n    //Return players of a lottery round\r\n    function getLotteryPlayers(uint lottery_round) public view returns (Player[] memory) {\r\n        uint playerCount = players[lottery_round].length;\r\n        Player[] memory list = new Player[](playerCount);\r\n\r\n        for (uint i = 0; i < playerCount; i++) {\r\n            address currentPlayer = players[lottery_round][i];\r\n            Player storage p = players_data[lottery_round][currentPlayer];\r\n            list[i] = p;\r\n        }\r\n        \r\n        return list;\r\n    }\r\n\r\n    //Return current lottery players\r\n    function getCurrentLotteryPlayers() public view returns (Player[] memory) {\r\n        return getLotteryPlayers(lotteryNumber);\r\n    }\r\n\r\n    //Generate a random number with modulo\r\n    function randMod(uint _modulus)private returns(uint)\r\n    {\r\n        randNonce++;\r\n        return uint(keccak256(abi.encodePacked(block.timestamp,msg.sender,randNonce))) % _modulus;\r\n    }\r\n\r\n    //Control access in a require function\r\n    modifier restricted() {\r\n        require(msg.sender == owner);\r\n        _;\r\n    }\r\n}",
  "sourcePath": "C:\\Users\\qfond\\git\\solidityPot\\contracts\\Lottery.sol",
  "compiler": {
    "name": "solc",
    "version": "0.8.3+commit.8d00100c.Emscripten.clang"
  },
  "schemaVersion": "3.4.13",
  "updatedAt": "2023-03-10T20:38:57.964Z",
  "networkType": "ethereum",
  "devdoc": {
    "kind": "dev",
    "methods": {},
    "version": 1
  },
  "userdoc": {
    "kind": "user",
    "methods": {},
    "version": 1
  }
}