{
  "contractName": "Lottery",
  "abi": [
    {
      "inputs": [],
      "stateMutability": "nonpayable",
      "type": "constructor"
    },
    {
      "anonymous": false,
      "inputs": [
        {
          "indexed": false,
          "internalType": "address",
          "name": "player",
          "type": "address"
        },
        {
          "indexed": false,
          "internalType": "uint256",
          "name": "amount",
          "type": "uint256"
        }
      ],
      "name": "LotteryEnter",
      "type": "event"
    },
    {
      "anonymous": false,
      "inputs": [
        {
          "indexed": false,
          "internalType": "address",
          "name": "winner",
          "type": "address"
        },
        {
          "indexed": false,
          "internalType": "uint256",
          "name": "amount",
          "type": "uint256"
        }
      ],
      "name": "Winner",
      "type": "event"
    },
    {
      "inputs": [],
      "name": "owner",
      "outputs": [
        {
          "internalType": "address",
          "name": "",
          "type": "address"
        }
      ],
      "stateMutability": "view",
      "type": "function",
      "constant": true
    },
    {
      "inputs": [
        {
          "internalType": "uint256",
          "name": "",
          "type": "uint256"
        },
        {
          "internalType": "uint256",
          "name": "",
          "type": "uint256"
        }
      ],
      "name": "players",
      "outputs": [
        {
          "internalType": "address",
          "name": "",
          "type": "address"
        }
      ],
      "stateMutability": "view",
      "type": "function",
      "constant": true
    },
    {
      "inputs": [],
      "name": "enter",
      "outputs": [],
      "stateMutability": "payable",
      "type": "function",
      "payable": true
    },
    {
      "inputs": [],
      "name": "pickWinner",
      "outputs": [],
      "stateMutability": "nonpayable",
      "type": "function"
    },
    {
      "inputs": [],
      "name": "getTotalAmount",
      "outputs": [
        {
          "internalType": "uint256",
          "name": "",
          "type": "uint256"
        }
      ],
      "stateMutability": "view",
      "type": "function",
      "constant": true
    },
    {
      "inputs": [],
      "name": "getState",
      "outputs": [
        {
          "internalType": "enum Lottery.State",
          "name": "",
          "type": "uint8"
        }
      ],
      "stateMutability": "view",
      "type": "function",
      "constant": true
    },
    {
      "inputs": [],
      "name": "getCurrentTime",
      "outputs": [
        {
          "internalType": "uint256",
          "name": "",
          "type": "uint256"
        }
      ],
      "stateMutability": "view",
      "type": "function",
      "constant": true
    },
    {
      "inputs": [
        {
          "internalType": "uint256",
          "name": "lottery_round",
          "type": "uint256"
        }
      ],
      "name": "getLotteryPlayers",
      "outputs": [
        {
          "components": [
            {
              "internalType": "address",
              "name": "player_address",
              "type": "address"
            },
            {
              "internalType": "uint256",
              "name": "amount_bet",
              "type": "uint256"
            }
          ],
          "internalType": "struct Lottery.Player[]",
          "name": "",
          "type": "tuple[]"
        }
      ],
      "stateMutability": "view",
      "type": "function",
      "constant": true
    },
    {
      "inputs": [],
      "name": "getCurrentLotteryPlayers",
      "outputs": [
        {
          "components": [
            {
              "internalType": "address",
              "name": "player_address",
              "type": "address"
            },
            {
              "internalType": "uint256",
              "name": "amount_bet",
              "type": "uint256"
            }
          ],
          "internalType": "struct Lottery.Player[]",
          "name": "",
          "type": "tuple[]"
        }
      ],
      "stateMutability": "view",
      "type": "function",
      "constant": true
    }
  ],
  "bytecode": "0x60806040526001600055600060015542600655600060075534801561002357600080fd5b5033600260006101000a81548173ffffffffffffffffffffffffffffffffffffffff021916908373ffffffffffffffffffffffffffffffffffffffff1602179055506000600560146101000a81548160ff021916908360018111156100b1577f4e487b7100000000000000000000000000000000000000000000000000000000600052602160045260246000fd5b02179055506111e6806100c56000396000f3fe6080604052600436106100865760003560e01c806365ac43411161005957806365ac4341146101235780638da5cb5b1461014e578063998f1b8014610179578063a646daf6146101b6578063e97dcb62146101f357610086565b80631865c57d1461008b57806329cb924d146100b65780635b2a3503146100e15780635d495aea1461010c575b600080fd5b34801561009757600080fd5b506100a06101fd565b6040516100ad9190610ee7565b60405180910390f35b3480156100c257600080fd5b506100cb610214565b6040516100d89190610f02565b60405180910390f35b3480156100ed57600080fd5b506100f661021e565b6040516101039190610ec5565b60405180910390f35b34801561011857600080fd5b50610121610230565b005b34801561012f57600080fd5b50610138610574565b6040516101459190610f02565b60405180910390f35b34801561015a57600080fd5b5061016361057e565b6040516101709190610e58565b60405180910390f35b34801561018557600080fd5b506101a0600480360381019061019b9190610cb2565b6105a4565b6040516101ad9190610e58565b60405180910390f35b3480156101c257600080fd5b506101dd60048036038101906101d89190610c89565b6105f2565b6040516101ea9190610ec5565b60405180910390f35b6101fb610836565b005b6000600560149054906101000a900460ff16905090565b6000600654905090565b606061022b6000546105f2565b905090565b600260009054906101000a900473ffffffffffffffffffffffffffffffffffffffff1673ffffffffffffffffffffffffffffffffffffffff163373ffffffffffffffffffffffffffffffffffffffff161461028a57600080fd5b6000600460008054815260200190815260200160002080549050116102ae57600080fd5b60006102bb600754610be8565b90506000805b6004600080548152602001908152602001600020805490508110156104865760006004600080548152602001908152602001600020828154811061032e577f4e487b7100000000000000000000000000000000000000000000000000000000600052603260045260246000fd5b9060005260206000200160009054906101000a900473ffffffffffffffffffffffffffffffffffffffff16905082841180156103c95750600360008054815260200190815260200160002060008273ffffffffffffffffffffffffffffffffffffffff1673ffffffffffffffffffffffffffffffffffffffff16815260200190815260200160002060010154836103c59190610f56565b8411155b156104105780600560006101000a81548173ffffffffffffffffffffffffffffffffffffffff021916908373ffffffffffffffffffffffffffffffffffffffff1602179055505b600360008054815260200190815260200160002060008273ffffffffffffffffffffffffffffffffffffffff1673ffffffffffffffffffffffffffffffffffffffff16815260200190815260200160002060010154836104709190610f56565b925050808061047e90611043565b9150506102c1565b506000479050600560009054906101000a900473ffffffffffffffffffffffffffffffffffffffff1673ffffffffffffffffffffffffffffffffffffffff166108fc829081150290604051600060405180830381858888f193505050501580156104f4573d6000803e3d6000fd5b5060008081548092919061050790611043565b919050555060006007819055507f9c2270628a9b29d30ae96b6c4c14ed646ee134febdce38a5b77f2bde9cea2e20600560009054906101000a900473ffffffffffffffffffffffffffffffffffffffff1682604051610567929190610e73565b60405180910390a1505050565b6000600754905090565b600260009054906101000a900473ffffffffffffffffffffffffffffffffffffffff1681565b600460205281600052604060002081815481106105c057600080fd5b906000526020600020016000915091509054906101000a900473ffffffffffffffffffffffffffffffffffffffff1681565b606060006004600084815260200190815260200160002080549050905060008167ffffffffffffffff811115610651577f4e487b7100000000000000000000000000000000000000000000000000000000600052604160045260246000fd5b60405190808252806020026020018201604052801561068a57816020015b610677610c44565b81526020019060019003908161066f5790505b50905060005b8281101561082b5760006004600087815260200190815260200160002082815481106106e5577f4e487b7100000000000000000000000000000000000000000000000000000000600052603260045260246000fd5b9060005260206000200160009054906101000a900473ffffffffffffffffffffffffffffffffffffffff16905060006003600088815260200190815260200160002060008373ffffffffffffffffffffffffffffffffffffffff1673ffffffffffffffffffffffffffffffffffffffff1681526020019081526020016000209050806040518060400160405290816000820160009054906101000a900473ffffffffffffffffffffffffffffffffffffffff1673ffffffffffffffffffffffffffffffffffffffff1673ffffffffffffffffffffffffffffffffffffffff16815260200160018201548152505084848151811061080b577f4e487b7100000000000000000000000000000000000000000000000000000000600052603260045260246000fd5b60200260200101819052505050808061082390611043565b915050610690565b508092505050919050565b655af3107a4000341161084857600080fd5b6000805b600460008054815260200190815260200160002080549050811015610a2b573373ffffffffffffffffffffffffffffffffffffffff16600460008054815260200190815260200160002082815481106108ce577f4e487b7100000000000000000000000000000000000000000000000000000000600052603260045260246000fd5b9060005260206000200160009054906101000a900473ffffffffffffffffffffffffffffffffffffffff1673ffffffffffffffffffffffffffffffffffffffff161415610a185734600360008054815260200190815260200160002060003373ffffffffffffffffffffffffffffffffffffffff1673ffffffffffffffffffffffffffffffffffffffff16815260200190815260200160002060010160008282546109799190610f56565b9250508190555033600360008054815260200190815260200160002060003373ffffffffffffffffffffffffffffffffffffffff1673ffffffffffffffffffffffffffffffffffffffff16815260200190815260200160002060000160006101000a81548173ffffffffffffffffffffffffffffffffffffffff021916908373ffffffffffffffffffffffffffffffffffffffff160217905550600191505b8080610a2390611043565b91505061084c565b5080610b935734600360008054815260200190815260200160002060003373ffffffffffffffffffffffffffffffffffffffff1673ffffffffffffffffffffffffffffffffffffffff1681526020019081526020016000206001018190555033600360008054815260200190815260200160002060003373ffffffffffffffffffffffffffffffffffffffff1673ffffffffffffffffffffffffffffffffffffffff16815260200190815260200160002060000160006101000a81548173ffffffffffffffffffffffffffffffffffffffff021916908373ffffffffffffffffffffffffffffffffffffffff1602179055506004600080548152602001908152602001600020339080600181540180825580915050600190039060005260206000200160009091909190916101000a81548173ffffffffffffffffffffffffffffffffffffffff021916908373ffffffffffffffffffffffffffffffffffffffff1602179055505b3460076000828254610ba59190610f56565b925050819055507fe70addbf44fe59dc57d765bdf5ff7c30025c385e716634e9c2848dd2eaba56893334604051610bdd929190610e9c565b60405180910390a150565b600060016000815480929190610bfd90611043565b9190505550814233600154604051602001610c1a93929190610e1b565b6040516020818303038152906040528051906020012060001c610c3d91906110ba565b9050919050565b6040518060400160405280600073ffffffffffffffffffffffffffffffffffffffff168152602001600081525090565b600081359050610c8381611199565b92915050565b600060208284031215610c9b57600080fd5b6000610ca984828501610c74565b91505092915050565b60008060408385031215610cc557600080fd5b6000610cd385828601610c74565b9250506020610ce485828601610c74565b9150509250929050565b6000610cfa8383610db7565b60408301905092915050565b610d0f81610ffb565b82525050565b610d1e81610fac565b82525050565b610d2d81610fac565b82525050565b610d44610d3f82610fac565b61108c565b82525050565b6000610d5582610f2d565b610d5f8185610f45565b9350610d6a83610f1d565b8060005b83811015610d9b578151610d828882610cee565b9750610d8d83610f38565b925050600181019050610d6e565b5085935050505092915050565b610db18161100d565b82525050565b604082016000820151610dcd6000850182610d15565b506020820151610de06020850182610de6565b50505050565b610def81610ff1565b82525050565b610dfe81610ff1565b82525050565b610e15610e1082610ff1565b6110b0565b82525050565b6000610e278286610e04565b602082019150610e378285610d33565b601482019150610e478284610e04565b602082019150819050949350505050565b6000602082019050610e6d6000830184610d24565b92915050565b6000604082019050610e886000830185610d06565b610e956020830184610df5565b9392505050565b6000604082019050610eb16000830185610d24565b610ebe6020830184610df5565b9392505050565b60006020820190508181036000830152610edf8184610d4a565b905092915050565b6000602082019050610efc6000830184610da8565b92915050565b6000602082019050610f176000830184610df5565b92915050565b6000819050602082019050919050565b600081519050919050565b6000602082019050919050565b600082825260208201905092915050565b6000610f6182610ff1565b9150610f6c83610ff1565b9250827fffffffffffffffffffffffffffffffffffffffffffffffffffffffffffffffff03821115610fa157610fa06110eb565b5b828201905092915050565b6000610fb782610fd1565b9050919050565b6000819050610fcc82611185565b919050565b600073ffffffffffffffffffffffffffffffffffffffff82169050919050565b6000819050919050565b60006110068261101f565b9050919050565b600061101882610fbe565b9050919050565b600061102a82611031565b9050919050565b600061103c82610fd1565b9050919050565b600061104e82610ff1565b91507fffffffffffffffffffffffffffffffffffffffffffffffffffffffffffffffff821415611081576110806110eb565b5b600182019050919050565b60006110978261109e565b9050919050565b60006110a982611178565b9050919050565b6000819050919050565b60006110c582610ff1565b91506110d083610ff1565b9250826110e0576110df61111a565b5b828206905092915050565b7f4e487b7100000000000000000000000000000000000000000000000000000000600052601160045260246000fd5b7f4e487b7100000000000000000000000000000000000000000000000000000000600052601260045260246000fd5b7f4e487b7100000000000000000000000000000000000000000000000000000000600052602160045260246000fd5b60008160601b9050919050565b6002811061119657611195611149565b5b50565b6111a281610ff1565b81146111ad57600080fd5b5056fea26469706673582212200b7deb7dd53850f4e69d3eb177f8fdd923f13944e605c51f15bddcae660ba04764736f6c63430008030033",
  "immutableReferences": {},
  "source": "pragma solidity ^0.8.0;\r\n\r\ncontract Lottery {\r\n\r\n    enum State { Active, Close }\r\n\r\n    struct Player {\r\n        address player_address;\r\n        uint amount_bet;\r\n    }\r\n\r\n    uint lotteryNumber = 1;\r\n    uint randNonce = 0;\r\n\r\n    address public owner;\r\n\r\n    //Players data by lottery number\r\n    mapping(uint => mapping(address => Player)) private players_data;\r\n    //Players by lottery number\r\n    mapping(uint => address[]) public players;\r\n\r\n    address payable private winner;\r\n    State private state;\r\n\r\n    uint private currentTime = block.timestamp;\r\n\r\n    event LotteryEnter(address player, uint amount);\r\n    event Winner(address winner, uint amount);\r\n    uint private totalAmount = 0;\r\n\r\n    constructor() {\r\n        owner = msg.sender;\r\n        state = State.Active;\r\n    }\r\n\r\n    //Extend payable, mean it need a transaction on blockchain to be executed\r\n    //Add a new ticket to the list of ticket\r\n    function enter() public payable {\r\n        require(msg.value > 0.0001 ether);\r\n\r\n        bool credited = false;\r\n        for(uint i = 0; i < players[lotteryNumber].length; i ++){\r\n            if (players[lotteryNumber][i] == msg.sender){\r\n                players_data[lotteryNumber][msg.sender].amount_bet += msg.value;\r\n                players_data[lotteryNumber][msg.sender].player_address = msg.sender;\r\n                credited = true;\r\n            }\r\n        }\r\n\r\n        if(!credited){\r\n            players_data[lotteryNumber][msg.sender].amount_bet = msg.value;\r\n            players_data[lotteryNumber][msg.sender].player_address = msg.sender;\r\n            players[lotteryNumber].push(payable(msg.sender));\r\n        }\r\n\r\n        totalAmount += msg.value;\r\n        emit LotteryEnter(msg.sender, msg.value);\r\n    }\r\n\r\n    //Choose a winner by choosing a random ticket, consedering the value of each ticket\r\n    function pickWinner() public restricted {\r\n        require (players[lotteryNumber].length > 0);\r\n\r\n        uint winAmountIndex = randMod(totalAmount);\r\n        uint amountIndex = 0;\r\n\r\n        for(uint i = 0; i < players[lotteryNumber].length; i ++){\r\n            address currentPlayer = players[lotteryNumber][i];\r\n            if(winAmountIndex > amountIndex && winAmountIndex <= amountIndex + players_data[lotteryNumber][currentPlayer].amount_bet){\r\n                winner = payable(currentPlayer);\r\n            }\r\n            amountIndex += players_data[lotteryNumber][currentPlayer].amount_bet;\r\n        }\r\n        \r\n        uint amount = address(this).balance;\r\n        winner.transfer(amount);\r\n\r\n        lotteryNumber++;\r\n        totalAmount = 0;\r\n        emit Winner(winner, amount);\r\n    }\r\n\r\n    //Return the total amount of the pot\r\n    function getTotalAmount() public view returns (uint){\r\n        return totalAmount;\r\n    }\r\n\r\n    //Return the state of the lottery\r\n    function getState() public view returns (State) {\r\n        return state;\r\n    }\r\n\r\n    //Not implemented\r\n    function getCurrentTime() public view returns (uint) {\r\n        return currentTime;\r\n    }\r\n\r\n    //Return players of a lottery round\r\n    function getLotteryPlayers(uint lottery_round) public view returns (Player[] memory) {\r\n        uint playerCount = players[lottery_round].length;\r\n        Player[] memory list = new Player[](playerCount);\r\n\r\n        for (uint i = 0; i < playerCount; i++) {\r\n            address currentPlayer = players[lottery_round][i];\r\n            Player storage p = players_data[lottery_round][currentPlayer];\r\n            list[i] = p;\r\n        }\r\n        \r\n        return list;\r\n    }\r\n\r\n    //Return current lottery players\r\n    function getCurrentLotteryPlayers() public view returns (Player[] memory) {\r\n        return getLotteryPlayers(lotteryNumber);\r\n    }\r\n\r\n    //Generate a random number with modulo\r\n    function randMod(uint _modulus)private returns(uint)\r\n    {\r\n        randNonce++;\r\n        return uint(keccak256(abi.encodePacked(block.timestamp,msg.sender,randNonce))) % _modulus;\r\n    }\r\n\r\n    //Control access in a require function\r\n    modifier restricted() {\r\n        require(msg.sender == owner);\r\n        _;\r\n    }\r\n}",
  "sourcePath": "C:\\Users\\qfond\\git\\solidityPot\\contracts\\Lottery.sol",
  "compiler": {
    "name": "solc",
    "version": "0.8.3+commit.8d00100c.Emscripten.clang"
  },
  "schemaVersion": "3.4.13",
  "updatedAt": "2023-03-15T11:51:42.561Z",
  "networkType": "ethereum",
  "devdoc": {
    "kind": "dev",
    "methods": {},
    "version": 1
  },
  "userdoc": {
    "kind": "user",
    "methods": {},
    "version": 1
  }
}