{
  "contractName": "Lottery",
  "abi": [
    {
      "inputs": [],
      "stateMutability": "nonpayable",
      "type": "constructor"
    },
    {
      "anonymous": false,
      "inputs": [
        {
          "indexed": false,
          "internalType": "address",
          "name": "player",
          "type": "address"
        },
        {
          "indexed": false,
          "internalType": "uint256",
          "name": "amount",
          "type": "uint256"
        }
      ],
      "name": "LotteryEnter",
      "type": "event"
    },
    {
      "anonymous": false,
      "inputs": [
        {
          "indexed": false,
          "internalType": "address",
          "name": "winner",
          "type": "address"
        },
        {
          "indexed": false,
          "internalType": "uint256",
          "name": "amount",
          "type": "uint256"
        }
      ],
      "name": "Winner",
      "type": "event"
    },
    {
      "inputs": [],
      "name": "currentTime",
      "outputs": [
        {
          "internalType": "uint256",
          "name": "",
          "type": "uint256"
        }
      ],
      "stateMutability": "view",
      "type": "function"
    },
    {
      "inputs": [],
      "name": "manager",
      "outputs": [
        {
          "internalType": "address",
          "name": "",
          "type": "address"
        }
      ],
      "stateMutability": "view",
      "type": "function"
    },
    {
      "inputs": [
        {
          "internalType": "uint256",
          "name": "",
          "type": "uint256"
        }
      ],
      "name": "players",
      "outputs": [
        {
          "internalType": "address",
          "name": "",
          "type": "address"
        }
      ],
      "stateMutability": "view",
      "type": "function"
    },
    {
      "inputs": [],
      "name": "state",
      "outputs": [
        {
          "internalType": "enum Lottery.State",
          "name": "",
          "type": "uint8"
        }
      ],
      "stateMutability": "view",
      "type": "function"
    },
    {
      "inputs": [],
      "name": "totalAmount",
      "outputs": [
        {
          "internalType": "uint256",
          "name": "",
          "type": "uint256"
        }
      ],
      "stateMutability": "view",
      "type": "function"
    },
    {
      "inputs": [],
      "name": "enter",
      "outputs": [],
      "stateMutability": "payable",
      "type": "function"
    },
    {
      "inputs": [],
      "name": "pickWinner",
      "outputs": [],
      "stateMutability": "nonpayable",
      "type": "function"
    },
    {
      "inputs": [],
      "name": "getPlayers",
      "outputs": [
        {
          "internalType": "address[]",
          "name": "",
          "type": "address[]"
        }
      ],
      "stateMutability": "view",
      "type": "function"
    },
    {
      "inputs": [],
      "name": "getTotalAmount",
      "outputs": [
        {
          "internalType": "uint256",
          "name": "",
          "type": "uint256"
        }
      ],
      "stateMutability": "view",
      "type": "function"
    }
  ],
  "bytecode": "0x60806040526000805542600555600060065534801561001d57600080fd5b5033600160006101000a81548173ffffffffffffffffffffffffffffffffffffffff021916908373ffffffffffffffffffffffffffffffffffffffff1602179055506000600460146101000a81548160ff021916908360018111156100ab577f4e487b7100000000000000000000000000000000000000000000000000000000600052602160045260246000fd5b0217905550610f41806100bf6000396000f3fe6080604052600436106100865760003560e01c80638b5b9ccc116100595780638b5b9ccc14610123578063c19d93fb1461014e578063d18e81b314610179578063e97dcb62146101a4578063f71d96cb146101ae57610086565b80631a39d8ef1461008b578063481c6a75146100b65780635d495aea146100e157806365ac4341146100f8575b600080fd5b34801561009757600080fd5b506100a06101eb565b6040516100ad9190610c5d565b60405180910390f35b3480156100c257600080fd5b506100cb6101f1565b6040516100d89190610bb3565b60405180910390f35b3480156100ed57600080fd5b506100f6610217565b005b34801561010457600080fd5b5061010d61062f565b60405161011a9190610c5d565b60405180910390f35b34801561012f57600080fd5b50610138610639565b6040516101459190610c20565b60405180910390f35b34801561015a57600080fd5b506101636106c7565b6040516101709190610c42565b60405180910390f35b34801561018557600080fd5b5061018e6106da565b60405161019b9190610c5d565b60405180910390f35b6101ac6106e0565b005b3480156101ba57600080fd5b506101d560048036038101906101d09190610a5e565b610908565b6040516101e29190610bb3565b60405180910390f35b60065481565b600160009054906101000a900473ffffffffffffffffffffffffffffffffffffffff1681565b600160009054906101000a900473ffffffffffffffffffffffffffffffffffffffff1673ffffffffffffffffffffffffffffffffffffffff163373ffffffffffffffffffffffffffffffffffffffff161461027157600080fd5b60006003805490501161028357600080fd5b6000610290600654610947565b90506000805b60038054905081101561040d576000600382815481106102df577f4e487b7100000000000000000000000000000000000000000000000000000000600052603260045260246000fd5b9060005260206000200160009054906101000a900473ffffffffffffffffffffffffffffffffffffffff16905082841180156103655750600260008273ffffffffffffffffffffffffffffffffffffffff1673ffffffffffffffffffffffffffffffffffffffff16815260200190815260200160002054836103619190610cb1565b8411155b156103ac5780600460006101000a81548173ffffffffffffffffffffffffffffffffffffffff021916908373ffffffffffffffffffffffffffffffffffffffff1602179055505b600260008273ffffffffffffffffffffffffffffffffffffffff1673ffffffffffffffffffffffffffffffffffffffff16815260200190815260200160002054836103f79190610cb1565b925050808061040590610d9e565b915050610296565b506000479050600460009054906101000a900473ffffffffffffffffffffffffffffffffffffffff1673ffffffffffffffffffffffffffffffffffffffff166108fc829081150290604051600060405180830381858888f1935050505015801561047b573d6000803e3d6000fd5b5060005b60038054905081101561054857600060026000600384815481106104cc577f4e487b7100000000000000000000000000000000000000000000000000000000600052603260045260246000fd5b9060005260206000200160009054906101000a900473ffffffffffffffffffffffffffffffffffffffff1673ffffffffffffffffffffffffffffffffffffffff1673ffffffffffffffffffffffffffffffffffffffff16815260200190815260200160002081905550808061054090610d9e565b91505061047f565b50600067ffffffffffffffff81111561058a577f4e487b7100000000000000000000000000000000000000000000000000000000600052604160045260246000fd5b6040519080825280602002602001820160405280156105b85781602001602082028036833780820191505090505b50600390805190602001906105ce9291906109a2565b507f9c2270628a9b29d30ae96b6c4c14ed646ee134febdce38a5b77f2bde9cea2e20600460009054906101000a900473ffffffffffffffffffffffffffffffffffffffff1682604051610622929190610bce565b60405180910390a1505050565b6000600654905090565b606060038054806020026020016040519081016040528092919081815260200182805480156106bd57602002820191906000526020600020905b8160009054906101000a900473ffffffffffffffffffffffffffffffffffffffff1673ffffffffffffffffffffffffffffffffffffffff1681526020019060010190808311610673575b5050505050905090565b600460149054906101000a900460ff1681565b60055481565b655af3107a400034116106f257600080fd5b6000805b600380549050811015610805573373ffffffffffffffffffffffffffffffffffffffff1660038281548110610754577f4e487b7100000000000000000000000000000000000000000000000000000000600052603260045260246000fd5b9060005260206000200160009054906101000a900473ffffffffffffffffffffffffffffffffffffffff1673ffffffffffffffffffffffffffffffffffffffff1614156107f25734600260003373ffffffffffffffffffffffffffffffffffffffff1673ffffffffffffffffffffffffffffffffffffffff16815260200190815260200160002060008282546107ea9190610cb1565b925050819055505b80806107fd90610d9e565b9150506106f6565b50806108b35734600260003373ffffffffffffffffffffffffffffffffffffffff1673ffffffffffffffffffffffffffffffffffffffff168152602001908152602001600020819055506003339080600181540180825580915050600190039060005260206000200160009091909190916101000a81548173ffffffffffffffffffffffffffffffffffffffff021916908373ffffffffffffffffffffffffffffffffffffffff1602179055505b34600660008282546108c59190610cb1565b925050819055507fe70addbf44fe59dc57d765bdf5ff7c30025c385e716634e9c2848dd2eaba568933346040516108fd929190610bf7565b60405180910390a150565b6003818154811061091857600080fd5b906000526020600020016000915054906101000a900473ffffffffffffffffffffffffffffffffffffffff1681565b600080600081548092919061095b90610d9e565b919050555081423360005460405160200161097893929190610b76565b6040516020818303038152906040528051906020012060001c61099b9190610e15565b9050919050565b828054828255906000526020600020908101928215610a1b579160200282015b82811115610a1a5782518260006101000a81548173ffffffffffffffffffffffffffffffffffffffff021916908373ffffffffffffffffffffffffffffffffffffffff160217905550916020019190600101906109c2565b5b509050610a289190610a2c565b5090565b5b80821115610a45576000816000905550600101610a2d565b5090565b600081359050610a5881610ef4565b92915050565b600060208284031215610a7057600080fd5b6000610a7e84828501610a49565b91505092915050565b6000610a938383610aae565b60208301905092915050565b610aa881610d56565b82525050565b610ab781610d07565b82525050565b610ac681610d07565b82525050565b610add610ad882610d07565b610de7565b82525050565b6000610aee82610c88565b610af88185610ca0565b9350610b0383610c78565b8060005b83811015610b34578151610b1b8882610a87565b9750610b2683610c93565b925050600181019050610b07565b5085935050505092915050565b610b4a81610d68565b82525050565b610b5981610d4c565b82525050565b610b70610b6b82610d4c565b610e0b565b82525050565b6000610b828286610b5f565b602082019150610b928285610acc565b601482019150610ba28284610b5f565b602082019150819050949350505050565b6000602082019050610bc86000830184610abd565b92915050565b6000604082019050610be36000830185610a9f565b610bf06020830184610b50565b9392505050565b6000604082019050610c0c6000830185610abd565b610c196020830184610b50565b9392505050565b60006020820190508181036000830152610c3a8184610ae3565b905092915050565b6000602082019050610c576000830184610b41565b92915050565b6000602082019050610c726000830184610b50565b92915050565b6000819050602082019050919050565b600081519050919050565b6000602082019050919050565b600082825260208201905092915050565b6000610cbc82610d4c565b9150610cc783610d4c565b9250827fffffffffffffffffffffffffffffffffffffffffffffffffffffffffffffffff03821115610cfc57610cfb610e46565b5b828201905092915050565b6000610d1282610d2c565b9050919050565b6000819050610d2782610ee0565b919050565b600073ffffffffffffffffffffffffffffffffffffffff82169050919050565b6000819050919050565b6000610d6182610d7a565b9050919050565b6000610d7382610d19565b9050919050565b6000610d8582610d8c565b9050919050565b6000610d9782610d2c565b9050919050565b6000610da982610d4c565b91507fffffffffffffffffffffffffffffffffffffffffffffffffffffffffffffffff821415610ddc57610ddb610e46565b5b600182019050919050565b6000610df282610df9565b9050919050565b6000610e0482610ed3565b9050919050565b6000819050919050565b6000610e2082610d4c565b9150610e2b83610d4c565b925082610e3b57610e3a610e75565b5b828206905092915050565b7f4e487b7100000000000000000000000000000000000000000000000000000000600052601160045260246000fd5b7f4e487b7100000000000000000000000000000000000000000000000000000000600052601260045260246000fd5b7f4e487b7100000000000000000000000000000000000000000000000000000000600052602160045260246000fd5b60008160601b9050919050565b60028110610ef157610ef0610ea4565b5b50565b610efd81610d4c565b8114610f0857600080fd5b5056fea26469706673582212201f5addc07dbead7ebe59a1ff06adcbaecb48f2d1b1f8ae0fdb2baa5d010e13eb64736f6c63430008030033",
  "immutableReferences": {},
  "source": "pragma solidity ^0.8.0;\r\n\r\ncontract Lottery {\r\n\r\n    enum State { Active, Close }\r\n\r\n    uint randNonce = 0;\r\n\r\n    address public manager;\r\n\r\n    mapping (address => uint) players_amount;\r\n    address[] public players;\r\n\r\n    address payable private winner;\r\n    State public state;\r\n\r\n    uint public currentTime = block.timestamp;\r\n\r\n    event LotteryEnter(address player, uint amount);\r\n    event Winner(address winner, uint amount);\r\n    uint public totalAmount = 0;\r\n\r\n    constructor() {\r\n        manager = msg.sender;\r\n        state = State.Active;\r\n    }\r\n\r\n    function enter() public payable {\r\n        require(msg.value > 0.0001 ether);\r\n\r\n        bool credited = false;\r\n        for(uint i = 0; i < players.length; i ++){\r\n            if(players[i] == msg.sender){\r\n                players_amount[msg.sender] += msg.value;\r\n            }\r\n        }\r\n\r\n        if(!credited){\r\n            players_amount[msg.sender] = msg.value;\r\n            players.push(payable(msg.sender));\r\n        }\r\n\r\n        totalAmount += msg.value;\r\n        emit LotteryEnter(msg.sender, msg.value);\r\n    }\r\n\r\n    function pickWinner() public restricted {\r\n        require(players.length > 0);\r\n\r\n        uint winAmountIndex = randMod(totalAmount);\r\n        uint amountIndex = 0;\r\n\r\n        for(uint i = 0; i < players.length; i ++){\r\n            address currentPlayer = players[i];\r\n            if(winAmountIndex > amountIndex && winAmountIndex <= amountIndex + players_amount[currentPlayer]){\r\n                winner = payable(currentPlayer);\r\n            }\r\n            amountIndex += players_amount[currentPlayer];\r\n        }\r\n        \r\n        uint amount = address(this).balance;\r\n        winner.transfer(amount);\r\n\r\n        for (uint i = 0; i < players.length; i++) {\r\n            players_amount[players[i]] = 0;\r\n        }\r\n        players = new address[](0);\r\n        emit Winner(winner, amount);\r\n    }\r\n\r\n    function getPlayers() public view returns (address[] memory) {\r\n        return players;\r\n    }\r\n\r\n    function getTotalAmount() public view returns (uint){\r\n        return totalAmount;\r\n    }\r\n\r\n    function randMod(uint _modulus)private returns(uint)\r\n    {\r\n        randNonce++;\r\n        return uint(keccak256(abi.encodePacked(block.timestamp,msg.sender,randNonce))) % _modulus;\r\n    }\r\n\r\n    modifier restricted() {\r\n        require(msg.sender == manager);\r\n        _;\r\n    }\r\n}",
  "sourcePath": "C:\\Users\\qfond\\git\\solidityPot\\contracts\\Lottery.sol",
  "compiler": {
    "name": "solc",
    "version": "0.8.3+commit.8d00100c.Emscripten.clang"
  },
  "schemaVersion": "3.4.13",
  "updatedAt": "2023-03-10T13:28:51.084Z",
  "devdoc": {
    "kind": "dev",
    "methods": {},
    "version": 1
  },
  "userdoc": {
    "kind": "user",
    "methods": {},
    "version": 1
  }
}